{
  "_format": "hh-sol-artifact-1",
  "contractName": "PositionHouse",
  "sourceName": "contracts/protocol/position/PositionHouse.sol",
  "abi": [
    {
      "anonymous": false,
      "inputs": [
        {
          "indexed": false,
          "internalType": "address",
          "name": "amm",
          "type": "address"
        },
        {
          "indexed": false,
          "internalType": "uint256",
          "name": "index",
          "type": "uint256"
        },
        {
          "indexed": false,
          "internalType": "int256",
          "name": "tick",
          "type": "int256"
        }
      ],
      "name": "CancelOrder",
      "type": "event"
    },
    {
      "anonymous": false,
      "inputs": [
        {
          "indexed": true,
          "internalType": "address",
          "name": "sender",
          "type": "address"
        },
        {
          "indexed": true,
          "internalType": "address",
          "name": "amm",
          "type": "address"
        },
        {
          "indexed": false,
          "internalType": "uint256",
          "name": "amount",
          "type": "uint256"
        },
        {
          "indexed": false,
          "internalType": "int256",
          "name": "fundingPayment",
          "type": "int256"
        }
      ],
      "name": "MarginChanged",
      "type": "event"
    },
    {
      "anonymous": false,
      "inputs": [
        {
          "indexed": false,
          "internalType": "address",
          "name": "amm",
          "type": "address"
        },
        {
          "indexed": false,
          "internalType": "address",
          "name": "trader",
          "type": "address"
        },
        {
          "indexed": false,
          "internalType": "address",
          "name": "amountBase",
          "type": "address"
        },
        {
          "indexed": false,
          "internalType": "address",
          "name": "amountQoute",
          "type": "address"
        },
        {
          "indexed": false,
          "internalType": "address",
          "name": "tick",
          "type": "address"
        },
        {
          "indexed": false,
          "internalType": "address",
          "name": "index",
          "type": "address"
        }
      ],
      "name": "OpenLimitOrder",
      "type": "event"
    },
    {
      "inputs": [
        {
          "internalType": "contract IAmm",
          "name": "_amm",
          "type": "address"
        },
        {
          "internalType": "uint256",
          "name": "index",
          "type": "uint256"
        },
        {
          "internalType": "int256",
          "name": "tick",
          "type": "int256"
        },
        {
          "internalType": "uint256",
          "name": "_addedMargin",
          "type": "uint256"
        }
      ],
      "name": "addMargin",
      "outputs": [],
      "stateMutability": "nonpayable",
      "type": "function"
    },
    {
      "inputs": [
        {
          "internalType": "contract IAmm",
          "name": "_amm",
          "type": "address"
        },
        {
          "internalType": "uint256",
          "name": "index",
          "type": "uint256"
        },
        {
          "internalType": "int256",
          "name": "tick",
          "type": "int256"
        }
      ],
      "name": "cancelOrder",
      "outputs": [],
      "stateMutability": "nonpayable",
      "type": "function"
    },
    {
      "inputs": [],
      "name": "clearPosition",
      "outputs": [],
      "stateMutability": "nonpayable",
      "type": "function"
    },
    {
      "inputs": [
        {
          "internalType": "contract IAmm",
          "name": "_amm",
          "type": "address"
        },
        {
          "internalType": "uint256",
          "name": "index",
          "type": "uint256"
        },
        {
          "internalType": "uint256",
          "name": "tick",
          "type": "uint256"
        }
      ],
      "name": "closePosition",
      "outputs": [],
      "stateMutability": "nonpayable",
      "type": "function"
    },
    {
      "inputs": [
        {
          "internalType": "address",
          "name": "_address",
          "type": "address"
        }
      ],
      "name": "getBlacklist",
      "outputs": [
        {
          "internalType": "bool",
          "name": "",
          "type": "bool"
        }
      ],
      "stateMutability": "nonpayable",
      "type": "function"
    },
    {
      "inputs": [
        {
          "internalType": "contract IAmm",
          "name": "_amm",
          "type": "address"
        }
      ],
      "name": "getLatestCumulativePremiumFraction",
      "outputs": [
        {
          "internalType": "uint256",
          "name": "",
          "type": "uint256"
        }
      ],
      "stateMutability": "view",
      "type": "function"
    },
    {
      "inputs": [
        {
          "internalType": "contract IAmm",
          "name": "amm",
          "type": "address"
        },
        {
          "internalType": "int256",
          "name": "tick",
          "type": "int256"
        },
        {
          "internalType": "uint256",
          "name": "index",
          "type": "uint256"
        }
      ],
      "name": "getOrder",
      "outputs": [
        {
          "components": [
            {
              "internalType": "enum IAmm.Side",
              "name": "side",
              "type": "uint8"
            },
            {
              "internalType": "uint256",
              "name": "leverage",
              "type": "uint256"
            },
            {
              "internalType": "uint256",
              "name": "limitPrice",
              "type": "uint256"
            },
            {
              "internalType": "uint256",
              "name": "amountAssetQuote",
              "type": "uint256"
            },
            {
              "internalType": "uint256",
              "name": "amountAssetBase",
              "type": "uint256"
            },
            {
              "internalType": "uint256",
              "name": "margin",
              "type": "uint256"
            },
            {
              "internalType": "uint256",
              "name": "orderLiquidityRemain",
              "type": "uint256"
            },
            {
              "internalType": "enum IAmm.Status",
              "name": "status",
              "type": "uint8"
            }
          ],
          "internalType": "struct IAmm.Order",
          "name": "order",
          "type": "tuple"
        }
      ],
      "stateMutability": "view",
      "type": "function"
    },
    {
      "inputs": [
        {
          "internalType": "contract IAmm",
          "name": "_amm",
          "type": "address"
        },
        {
          "internalType": "address",
          "name": "_trader",
          "type": "address"
        }
      ],
      "name": "getPosition",
      "outputs": [
        {
          "components": [
            {
              "internalType": "uint256",
              "name": "index",
              "type": "uint256"
            },
            {
              "internalType": "int256",
              "name": "tick",
              "type": "int256"
            }
          ],
          "internalType": "struct IAmm.Position",
          "name": "positionsOpened",
          "type": "tuple"
        },
        {
          "components": [
            {
              "internalType": "uint256",
              "name": "index",
              "type": "uint256"
            },
            {
              "internalType": "int256",
              "name": "tick",
              "type": "int256"
            }
          ],
          "internalType": "struct IAmm.Position",
          "name": "positionOrder",
          "type": "tuple"
        }
      ],
      "stateMutability": "view",
      "type": "function"
    },
    {
      "inputs": [
        {
          "internalType": "contract IAmm",
          "name": "_amm",
          "type": "address"
        },
        {
          "internalType": "address",
          "name": "_trader",
          "type": "address"
        }
      ],
      "name": "getUnadjustedPosition",
      "outputs": [
        {
          "components": [
            {
              "internalType": "uint256",
              "name": "index",
              "type": "uint256"
            },
            {
              "internalType": "int256",
              "name": "tick",
              "type": "int256"
            }
          ],
          "internalType": "struct IAmm.Position",
          "name": "position",
          "type": "tuple"
        }
      ],
      "stateMutability": "view",
      "type": "function"
    },
    {
      "inputs": [
        {
          "internalType": "address",
          "name": "_address",
          "type": "address"
        }
      ],
      "name": "getWhitelist",
      "outputs": [
        {
          "internalType": "bool",
          "name": "",
          "type": "bool"
        }
      ],
      "stateMutability": "nonpayable",
      "type": "function"
    },
    {
      "inputs": [],
      "name": "insuranceFund",
      "outputs": [
        {
          "internalType": "contract IInsuranceFund",
          "name": "",
          "type": "address"
        }
      ],
      "stateMutability": "view",
      "type": "function"
    },
    {
      "inputs": [
        {
          "internalType": "contract IAmm",
          "name": "_amm",
          "type": "address"
        },
        {
          "internalType": "uint256",
          "name": "_amountAssetBase",
          "type": "uint256"
        },
        {
          "internalType": "uint256",
          "name": "_amountAssetQuote",
          "type": "uint256"
        },
        {
          "internalType": "uint256",
          "name": "_limitPrice",
          "type": "uint256"
        },
        {
          "internalType": "enum IAmm.Side",
          "name": "_side",
          "type": "uint8"
        },
        {
          "internalType": "int256",
          "name": "_tick",
          "type": "int256"
        },
        {
          "internalType": "uint256",
          "name": "_leverage",
          "type": "uint256"
        }
      ],
      "name": "openLimitOrder",
      "outputs": [],
      "stateMutability": "nonpayable",
      "type": "function"
    },
    {
      "inputs": [
        {
          "internalType": "contract IAmm",
          "name": "_amm",
          "type": "address"
        },
        {
          "internalType": "enum IAmm.Side",
          "name": "_side",
          "type": "uint8"
        },
        {
          "internalType": "uint256",
          "name": "_amountAssetQuote",
          "type": "uint256"
        },
        {
          "internalType": "uint256",
          "name": "_amountAssetBase",
          "type": "uint256"
        },
        {
          "internalType": "uint16",
          "name": "_leverage",
          "type": "uint16"
        },
        {
          "internalType": "uint256",
          "name": "_margin",
          "type": "uint256"
        }
      ],
      "name": "openPosition",
      "outputs": [],
      "stateMutability": "nonpayable",
      "type": "function"
    },
    {
      "inputs": [
        {
          "internalType": "enum IAmm.Side",
          "name": "_side",
          "type": "uint8"
        },
        {
          "internalType": "uint256",
          "name": "_orderPrice",
          "type": "uint256"
        },
        {
          "internalType": "uint256",
          "name": "_limitPrice",
          "type": "uint256"
        },
        {
          "internalType": "uint256",
          "name": "_stopPrice",
          "type": "uint256"
        },
        {
          "internalType": "uint256",
          "name": "_amountAssetQuote",
          "type": "uint256"
        }
      ],
      "name": "openStopLimit",
      "outputs": [],
      "stateMutability": "nonpayable",
      "type": "function"
    },
    {
      "inputs": [
        {
          "internalType": "contract IAmm",
          "name": "_amm",
          "type": "address"
        }
      ],
      "name": "payFunding",
      "outputs": [],
      "stateMutability": "nonpayable",
      "type": "function"
    },
    {
      "inputs": [
        {
          "internalType": "contract IAmm",
          "name": "amm",
          "type": "address"
        }
      ],
      "name": "queryOrder",
      "outputs": [
        {
          "components": [
            {
              "internalType": "uint256",
              "name": "index",
              "type": "uint256"
            },
            {
              "internalType": "int256",
              "name": "tick",
              "type": "int256"
            }
          ],
          "internalType": "struct IAmm.Position[]",
          "name": "positions",
          "type": "tuple[]"
        }
      ],
      "stateMutability": "view",
      "type": "function"
    },
    {
      "inputs": [
        {
          "internalType": "contract IAmm",
          "name": "_amm",
          "type": "address"
        },
        {
          "internalType": "uint256",
          "name": "",
          "type": "uint256"
        },
        {
          "internalType": "uint256",
          "name": "index",
          "type": "uint256"
        },
        {
          "internalType": "int256",
          "name": "tick",
          "type": "int256"
        },
        {
          "internalType": "uint256",
          "name": "_amountRemoved",
          "type": "uint256"
        }
      ],
      "name": "removeMargin",
      "outputs": [],
      "stateMutability": "nonpayable",
      "type": "function"
    },
    {
      "inputs": [
        {
          "internalType": "address",
          "name": "_address",
          "type": "address"
        },
        {
          "internalType": "bool",
          "name": "isBlacklist",
          "type": "bool"
        }
      ],
      "name": "setBlacklist",
      "outputs": [],
      "stateMutability": "nonpayable",
      "type": "function"
    },
    {
      "inputs": [
        {
          "internalType": "address",
          "name": "_address",
          "type": "address"
        },
        {
          "internalType": "bool",
          "name": "isWhitelist",
          "type": "bool"
        }
      ],
      "name": "setWhitelist",
      "outputs": [],
      "stateMutability": "nonpayable",
      "type": "function"
    }
  ],
  "bytecode": "0x608060405234801561001057600080fd5b5061158c806100206000396000f3fe608060405234801561001057600080fd5b50600436106101515760003560e01c80635d77d8d0116100cd578063b790230311610081578063c4627a7711610066578063c4627a77146102e2578063d8e0c4bf146102f5578063e15057fb146102fd57610151565b8063b7902303146102ad578063b8bcf35a146102c257610151565b806368ac7176116100b257806368ac7176146102595780638c09e7c71461026c578063b33dc1901461028c57610151565b80635d77d8d0146102265780636891397b1461023957610151565b80633e09fa10116101245780634d79710b116101095780634d79710b146101ed5780634fa9c4db1461020057806353d6fd591461021357610151565b80633e09fa10146101c7578063420aab74146101da57610151565b80630475db5a146101565780630c679c7a1461017f578063153b0d1e1461019457806330edc0f5146101a7575b600080fd5b610169610164366004610ebe565b610310565b6040516101769190611424565b60405180910390f35b61019261018d366004610f9f565b61031e565b005b6101926101a2366004610d8b565b610383565b6101ba6101b5366004610d6f565b6103ae565b6040516101769190611218565b6101926101d5366004610d6f565b6103d0565b6101926101e8366004610fd9565b61054e565b6101926101fb366004610eeb565b6105e7565b61019261020e366004610f8b565b6106c1565b610192610221366004610d8b565b610740565b6101ba610234366004610d6f565b61076b565b61024c610247366004610d6f565b610789565b604051610176919061144d565b610192610267366004610f8b565b61078f565b61027f61027a366004610d6f565b610901565b60405161017691906111cb565b61029f61029a366004610ebe565b6109a6565b604051610176929190611432565b6102b56109bd565b6040516101769190611196565b6102d56102d0366004610f57565b6109cc565b60405161017691906113b2565b6101926102f036600461109f565b610a76565b610192610a7d565b61019261030b36600461101c565b610a7f565b610318610cd7565b92915050565b610329846001610c91565b61033281610c95565b60405133906001600160a01b0386169082907f7974a8be0442934f73716b6e7e922977e52ed732b84e58b203b05e612706d02e90610374908690600090611260565b60405180910390a35050505050565b6001600160a01b03919091166000908152603460205260409020805460ff1916911515919091179055565b6001600160a01b03811660009081526033602052604090205460ff165b919050565b6103db816001610c91565b6000816001600160a01b031663ed83d79c6040518163ffffffff1660e01b815260040160206040518083038186803b15801561041657600080fd5b505afa15801561042a573d6000803e3d6000fd5b505050506040513d601f19601f8201168201806040525081019061044e91906110c1565b90506000826001600160a01b031663ffbf688e6040518163ffffffff1660e01b815260040160206040518083038186803b15801561048b57600080fd5b505afa15801561049f573d6000803e3d6000fd5b505050506040513d601f19601f820116820180604052508101906104c391906110c1565b905060006104d18383610ccb565b90506000846001600160a01b031663fdf262b76040518163ffffffff1660e01b815260040160206040518083038186803b15801561050e57600080fd5b505afa158015610522573d6000803e3d6000fd5b505050506040513d601f19601f820116820180604052508101906105469190611083565b505050505050565b610559856001610c91565b61056281610c95565b6040517fab98de6500000000000000000000000000000000000000000000000000000000815233906001600160a01b0387169063ab98de65906105ad90879087908790600401611456565b600060405180830381600087803b1580156105c757600080fd5b505af11580156105db573d6000803e3d6000fd5b50505050505050505050565b82158015906105f557508315155b604051806040016040528060018152602001603160f81b815250906106365760405162461bcd60e51b815260040161062d919061126e565b60405180910390fd5b506040517f55289e6c00000000000000000000000000000000000000000000000000000000815233906001600160a01b038816906355289e6c906106869089908990889088908890600401611223565b600060405180830381600087803b1580156106a057600080fd5b505af11580156106b4573d6000803e3d6000fd5b5050505050505050505050565b6040517f2f86e2dd00000000000000000000000000000000000000000000000000000000815233906001600160a01b03851690632f86e2dd90610708908490600401611196565b600060405180830381600087803b15801561072257600080fd5b505af1158015610736573d6000803e3d6000fd5b5050505050505050565b6001600160a01b03919091166000908152603360205260409020805460ff1916911515919091179055565b6001600160a01b031660009081526034602052604090205460ff1690565b50600090565b6040517fa2146ad10000000000000000000000000000000000000000000000000000000081526001600160a01b0384169063a2146ad1906107d69084908690600401611260565b60206040518083038186803b1580156107ee57600080fd5b505afa158015610802573d6000803e3d6000fd5b505050506040513d601f19601f820116820180604052508101906108269190610ea2565b1515600114156108485760405162461bcd60e51b815260040161062d9061137b565b6040517f27dcf6070000000000000000000000000000000000000000000000000000000081526001600160a01b038416906327dcf6079061088f9085908590600401611260565b600060405180830381600087803b1580156108a957600080fd5b505af11580156108bd573d6000803e3d6000fd5b505050507f3f2bd3200db8555a709c17a98d271f1fd7fc60438eecbff1f39f9def9a2131408383836040516108f4939291906111aa565b60405180910390a1505050565b6040517fb25b93a000000000000000000000000000000000000000000000000000000000815260609033906001600160a01b0384169063b25b93a09061094b908490600401611196565b60006040518083038186803b15801561096357600080fd5b505afa158015610977573d6000803e3d6000fd5b505050506040513d6000823e601f3d908101601f1916820160405261099f9190810190610dc3565b9392505050565b6109ae610cd7565b6109b6610cd7565b9250929050565b6032546001600160a01b031681565b6109d4610cf1565b6040517fb8bcf35a0000000000000000000000000000000000000000000000000000000081526001600160a01b0385169063b8bcf35a90610a1d903390879087906004016111aa565b6101006040518083038186803b158015610a3657600080fd5b505afa158015610a4a573d6000803e3d6000fd5b505050506040513d601f19601f82011682018060405250810190610a6e91906110d9565b949350505050565b5050505050565b565b6000876001600160a01b03166353aad1d96040518163ffffffff1660e01b8152600401602060405180830381600087803b158015610abc57600080fd5b505af1158015610ad0573d6000803e3d6000fd5b505050506040513d601f19601f82011682018060405250810190610af491906110c1565b90506000846001811115610b1857634e487b7160e01b600052602160045260246000fd5b1415610b4257808312610b3d5760405162461bcd60e51b815260040161062d9061131e565b610b61565b808313610b615760405162461bcd60e51b815260040161062d906112c1565b6040517ff4decfc400000000000000000000000000000000000000000000000000000000815233906000906001600160a01b038b169063f4decfc490610bb5908c908c908c908c908c908c9060040161146c565b602060405180830381600087803b158015610bcf57600080fd5b505af1158015610be3573d6000803e3d6000fd5b505050506040513d601f19601f82011682018060405250810190610c0791906110c1565b6040517f3dd03c450000000000000000000000000000000000000000000000000000000081529091506001600160a01b038b1690633dd03c4590610c53908590899086906004016111aa565b600060405180830381600087803b158015610c6d57600080fd5b505af1158015610c81573d6000803e3d6000fd5b5050505050505050505050505050565b5050565b6040805180820190915260018152603160f81b602082015281610c915760405162461bcd60e51b815260040161062d919061126e565b600061099f82846114cc565b604051806040016040528060008152602001600081525090565b604080516101008101909152806000815260200160008152602001600081526020016000815260200160008152602001600081526020016000815260200160006003811115610d5057634e487b7160e01b600052602160045260246000fd5b905290565b80516103cb81611549565b8051600481106103cb57600080fd5b600060208284031215610d80578081fd5b813561099f81611523565b60008060408385031215610d9d578081fd5b8235610da881611523565b91506020830135610db88161153b565b809150509250929050565b60006020808385031215610dd5578182fd5b825167ffffffffffffffff80821115610dec578384fd5b818501915085601f830112610dff578384fd5b815181811115610e1157610e1161150d565b610e1e84858302016114a2565b818152848101908486016040808502870188018b1015610e3c578889fd5b8896505b84871015610e935780828c031215610e56578889fd5b80518181018181108882111715610e6f57610e6f61150d565b82528251815288830151898201528452600196909601959287019290810190610e40565b50909998505050505050505050565b600060208284031215610eb3578081fd5b815161099f8161153b565b60008060408385031215610ed0578182fd5b8235610edb81611523565b91506020830135610db881611523565b60008060008060008060c08789031215610f03578182fd5b8635610f0e81611523565b95506020870135610f1e81611549565b94506040870135935060608701359250608087013561ffff81168114610f42578283fd5b8092505060a087013590509295509295509295565b600080600060608486031215610f6b578283fd5b8335610f7681611523565b95602085013595506040909401359392505050565b600080600060608486031215610f6b578081fd5b60008060008060808587031215610fb4578182fd5b8435610fbf81611523565b966020860135965060408601359560600135945092505050565b600080600080600060a08688031215610ff0578283fd5b8535610ffb81611523565b97602087013597506040870135966060810135965060800135945092505050565b600080600080600080600060e0888a031215611036578485fd5b873561104181611523565b9650602088013595506040880135945060608801359350608088013561106681611549565b9699959850939692959460a0840135945060c09093013592915050565b600060208284031215611094578081fd5b815161099f81611523565b600080600080600060a086880312156110b6578283fd5b8535610ffb81611549565b6000602082840312156110d2578081fd5b5051919050565b60006101008083850312156110ec578182fd5b6040519081019067ffffffffffffffff8211818310171561110f5761110f61150d565b8160405261111c84610d55565b81526020840151602082015260408401516040820152606084015160608201526080840151608082015260a084015160a082015260c084015160c082015261116660e08501610d60565b60e0820152949350505050565b60028110611183576111836114f7565b9052565b80518252602090810151910152565b6001600160a01b0391909116815260200190565b6001600160a01b039390931683526020830191909152604082015260600190565b602080825282518282018190526000919060409081850190868401855b8281101561120b576111fb848351611187565b92840192908501906001016111e8565b5091979650505050505050565b901515815260200190565b60a081016112318288611173565b85602083015261ffff851660408301528360608301526001600160a01b03831660808301529695505050505050565b918252602082015260400190565b6000602080835283518082850152825b8181101561129a5785810183015185820160400152820161127e565b818111156112ab5783604083870101525b50601f01601f1916929092016040019392505050565b6020808252602e908201527f596f7572206f726465726564207072696365206973206c6f776572207468616e60408201527f2063757272656e74207072696365000000000000000000000000000000000000606082015260800190565b6020808252602f908201527f596f7572206f726465726564207072696365206973206869676865722074686160408201527f6e2063757272656e742070726963650000000000000000000000000000000000606082015260800190565b60208082526017908201527f596f7572206f7264657220686173206578656375746564000000000000000000604082015260600190565b6000610100820190506113c6828451611173565b6020830151602083015260408301516040830152606083015160608301526080830151608083015260a083015160a083015260c083015160c083015260e083015160048110611417576114176114f7565b8060e08401525092915050565b604081016103188284611187565b608081016114408285611187565b61099f6040830184611187565b90815260200190565b9283526020830191909152604082015260600190565b868152602081018690526040810185905260c0810161148e6060830186611173565b608082019390935260a00152949350505050565b60405181810167ffffffffffffffff811182821017156114c4576114c461150d565b604052919050565b60008160001904831182151516156114f257634e487b7160e01b81526011600452602481fd5b500290565b634e487b7160e01b600052602160045260246000fd5b634e487b7160e01b600052604160045260246000fd5b6001600160a01b038116811461153857600080fd5b50565b801515811461153857600080fd5b6002811061153857600080fdfea26469706673582212201e2b78a8a479be563e3c0116c4d56bb351b39c18a3828f3f4c9d717ea2a3e5d764736f6c63430008000033",
  "linkReferences": {},
  "deployedLinkReferences": {}
}