{
  "_format": "hh-sol-artifact-1",
  "contractName": "PositionHouse",
  "sourceName": "contracts/protocol/position/PositionHouse.sol",
  "abi": [
    {
      "anonymous": false,
      "inputs": [
        {
          "indexed": false,
          "internalType": "address",
          "name": "amm",
          "type": "address"
        },
        {
          "indexed": false,
          "internalType": "uint256",
          "name": "index",
          "type": "uint256"
        },
        {
          "indexed": false,
          "internalType": "int256",
          "name": "tick",
          "type": "int256"
        }
      ],
      "name": "CancelOrder",
      "type": "event"
    },
    {
      "anonymous": false,
      "inputs": [
        {
          "indexed": true,
          "internalType": "address",
          "name": "sender",
          "type": "address"
        },
        {
          "indexed": true,
          "internalType": "address",
          "name": "amm",
          "type": "address"
        },
        {
          "indexed": false,
          "internalType": "uint256",
          "name": "amount",
          "type": "uint256"
        },
        {
          "indexed": false,
          "internalType": "int256",
          "name": "fundingPayment",
          "type": "int256"
        }
      ],
      "name": "MarginChanged",
      "type": "event"
    },
    {
      "anonymous": false,
      "inputs": [
        {
          "indexed": false,
          "internalType": "address",
          "name": "amm",
          "type": "address"
        },
        {
          "indexed": false,
          "internalType": "address",
          "name": "trader",
          "type": "address"
        },
        {
          "indexed": false,
          "internalType": "address",
          "name": "amountBase",
          "type": "address"
        },
        {
          "indexed": false,
          "internalType": "address",
          "name": "amountQoute",
          "type": "address"
        },
        {
          "indexed": false,
          "internalType": "address",
          "name": "tick",
          "type": "address"
        },
        {
          "indexed": false,
          "internalType": "address",
          "name": "index",
          "type": "address"
        }
      ],
      "name": "OpenLimitOrder",
      "type": "event"
    },
    {
      "inputs": [
        {
          "internalType": "contract IAmm",
          "name": "_amm",
          "type": "address"
        },
        {
          "internalType": "uint256",
          "name": "index",
          "type": "uint256"
        },
        {
          "internalType": "int256",
          "name": "tick",
          "type": "int256"
        },
        {
          "internalType": "uint256",
          "name": "_addedMargin",
          "type": "uint256"
        }
      ],
      "name": "addMargin",
      "outputs": [],
      "stateMutability": "nonpayable",
      "type": "function"
    },
    {
      "inputs": [
        {
          "internalType": "contract IAmm",
          "name": "_amm",
          "type": "address"
        },
        {
          "internalType": "uint256",
          "name": "index",
          "type": "uint256"
        },
        {
          "internalType": "int256",
          "name": "tick",
          "type": "int256"
        }
      ],
      "name": "cancelOrder",
      "outputs": [],
      "stateMutability": "nonpayable",
      "type": "function"
    },
    {
      "inputs": [],
      "name": "clearPosition",
      "outputs": [],
      "stateMutability": "nonpayable",
      "type": "function"
    },
    {
      "inputs": [
        {
          "internalType": "contract IAmm",
          "name": "_amm",
          "type": "address"
        },
        {
          "internalType": "uint256",
          "name": "index",
          "type": "uint256"
        },
        {
          "internalType": "uint256",
          "name": "tick",
          "type": "uint256"
        }
      ],
      "name": "closePosition",
      "outputs": [],
      "stateMutability": "nonpayable",
      "type": "function"
    },
    {
      "inputs": [
        {
          "internalType": "address",
          "name": "_address",
          "type": "address"
        }
      ],
      "name": "getBlacklist",
      "outputs": [
        {
          "internalType": "bool",
          "name": "",
          "type": "bool"
        }
      ],
      "stateMutability": "nonpayable",
      "type": "function"
    },
    {
      "inputs": [
        {
          "internalType": "contract IAmm",
          "name": "_amm",
          "type": "address"
        }
      ],
      "name": "getLatestCumulativePremiumFraction",
      "outputs": [
        {
          "internalType": "uint256",
          "name": "",
          "type": "uint256"
        }
      ],
      "stateMutability": "view",
      "type": "function"
    },
    {
      "inputs": [
        {
          "internalType": "contract IAmm",
          "name": "_amm",
          "type": "address"
        },
        {
          "internalType": "address",
          "name": "_trader",
          "type": "address"
        }
      ],
      "name": "getPosition",
      "outputs": [
        {
          "components": [
            {
              "internalType": "uint256",
              "name": "index",
              "type": "uint256"
            },
            {
              "internalType": "int256",
              "name": "tick",
              "type": "int256"
            }
          ],
          "internalType": "struct IAmm.Position",
          "name": "positionsOpened",
          "type": "tuple"
        },
        {
          "components": [
            {
              "internalType": "uint256",
              "name": "index",
              "type": "uint256"
            },
            {
              "internalType": "int256",
              "name": "tick",
              "type": "int256"
            }
          ],
          "internalType": "struct IAmm.Position",
          "name": "positionOrder",
          "type": "tuple"
        }
      ],
      "stateMutability": "view",
      "type": "function"
    },
    {
      "inputs": [
        {
          "internalType": "contract IAmm",
          "name": "_amm",
          "type": "address"
        },
        {
          "internalType": "address",
          "name": "_trader",
          "type": "address"
        }
      ],
      "name": "getUnadjustedPosition",
      "outputs": [
        {
          "components": [
            {
              "internalType": "uint256",
              "name": "index",
              "type": "uint256"
            },
            {
              "internalType": "int256",
              "name": "tick",
              "type": "int256"
            }
          ],
          "internalType": "struct IAmm.Position",
          "name": "position",
          "type": "tuple"
        }
      ],
      "stateMutability": "view",
      "type": "function"
    },
    {
      "inputs": [
        {
          "internalType": "address",
          "name": "_address",
          "type": "address"
        }
      ],
      "name": "getWhitelist",
      "outputs": [
        {
          "internalType": "bool",
          "name": "",
          "type": "bool"
        }
      ],
      "stateMutability": "nonpayable",
      "type": "function"
    },
    {
      "inputs": [],
      "name": "insuranceFund",
      "outputs": [
        {
          "internalType": "contract IInsuranceFund",
          "name": "",
          "type": "address"
        }
      ],
      "stateMutability": "view",
      "type": "function"
    },
    {
      "inputs": [
        {
          "internalType": "contract IAmm",
          "name": "_amm",
          "type": "address"
        },
        {
          "internalType": "uint256",
          "name": "_amountAssetBase",
          "type": "uint256"
        },
        {
          "internalType": "uint256",
          "name": "_amountAssetQuote",
          "type": "uint256"
        },
        {
          "internalType": "uint256",
          "name": "_limitPrice",
          "type": "uint256"
        },
        {
          "internalType": "enum IAmm.Side",
          "name": "_side",
          "type": "uint8"
        },
        {
          "internalType": "int256",
          "name": "_tick",
          "type": "int256"
        },
        {
          "internalType": "uint256",
          "name": "_leverage",
          "type": "uint256"
        }
      ],
      "name": "openLimitOrder",
      "outputs": [],
      "stateMutability": "nonpayable",
      "type": "function"
    },
    {
      "inputs": [
        {
          "internalType": "contract IAmm",
          "name": "_amm",
          "type": "address"
        },
        {
          "internalType": "enum IAmm.Side",
          "name": "_side",
          "type": "uint8"
        },
        {
          "internalType": "uint256",
          "name": "_amountAssetQuote",
          "type": "uint256"
        },
        {
          "internalType": "uint256",
          "name": "_amountAssetBase",
          "type": "uint256"
        },
        {
          "internalType": "uint16",
          "name": "_leverage",
          "type": "uint16"
        },
        {
          "internalType": "uint256",
          "name": "_margin",
          "type": "uint256"
        }
      ],
      "name": "openPosition",
      "outputs": [],
      "stateMutability": "nonpayable",
      "type": "function"
    },
    {
      "inputs": [
        {
          "internalType": "enum IAmm.Side",
          "name": "_side",
          "type": "uint8"
        },
        {
          "internalType": "uint256",
          "name": "_orderPrice",
          "type": "uint256"
        },
        {
          "internalType": "uint256",
          "name": "_limitPrice",
          "type": "uint256"
        },
        {
          "internalType": "uint256",
          "name": "_stopPrice",
          "type": "uint256"
        },
        {
          "internalType": "uint256",
          "name": "_amountAssetQuote",
          "type": "uint256"
        }
      ],
      "name": "openStopLimit",
      "outputs": [],
      "stateMutability": "nonpayable",
      "type": "function"
    },
    {
      "inputs": [
        {
          "internalType": "contract IAmm",
          "name": "_amm",
          "type": "address"
        }
      ],
      "name": "payFunding",
      "outputs": [],
      "stateMutability": "nonpayable",
      "type": "function"
    },
    {
      "inputs": [
        {
          "internalType": "contract IAmm",
          "name": "_amm",
          "type": "address"
        },
        {
          "internalType": "uint256",
          "name": "",
          "type": "uint256"
        },
        {
          "internalType": "uint256",
          "name": "index",
          "type": "uint256"
        },
        {
          "internalType": "int256",
          "name": "tick",
          "type": "int256"
        },
        {
          "internalType": "uint256",
          "name": "_amountRemoved",
          "type": "uint256"
        }
      ],
      "name": "removeMargin",
      "outputs": [],
      "stateMutability": "nonpayable",
      "type": "function"
    },
    {
      "inputs": [
        {
          "internalType": "address",
          "name": "_address",
          "type": "address"
        },
        {
          "internalType": "bool",
          "name": "isBlacklist",
          "type": "bool"
        }
      ],
      "name": "setBlacklist",
      "outputs": [],
      "stateMutability": "nonpayable",
      "type": "function"
    },
    {
      "inputs": [
        {
          "internalType": "address",
          "name": "_address",
          "type": "address"
        },
        {
          "internalType": "bool",
          "name": "isWhitelist",
          "type": "bool"
        }
      ],
      "name": "setWhitelist",
      "outputs": [],
      "stateMutability": "nonpayable",
      "type": "function"
    }
  ],
  "bytecode": "0x608060405234801561001057600080fd5b506110b7806100206000396000f3fe608060405234801561001057600080fd5b506004361061011b5760003560e01c806353d6fd59116100b2578063b33dc19011610081578063c4627a7711610066578063c4627a771461026c578063d8e0c4bf1461027f578063e15057fb146102875761011b565b8063b33dc19014610236578063b7902303146102575761011b565b806353d6fd59146101dd5780635d77d8d0146101f05780636891397b1461020357806368ac7176146102235761011b565b80633e09fa10116100ee5780633e09fa1014610191578063420aab74146101a45780634d79710b146101b75780634fa9c4db146101ca5761011b565b80630475db5a146101205780630c679c7a14610149578063153b0d1e1461015e57806330edc0f514610171575b600080fd5b61013361012e366004610bb2565b61029a565b6040516101409190610fb2565b60405180910390f35b61015c610157366004610c7d565b6102a8565b005b61015c61016c366004610b5e565b61030d565b61018461017f366004610b42565b610338565b6040516101409190610e18565b61015c61019f366004610b42565b61035a565b61015c6101b2366004610cb7565b6104d8565b61015c6101c5366004610bdf565b610571565b61015c6101d8366004610c49565b61064b565b61015c6101eb366004610b5e565b6106ca565b6101846101fe366004610b42565b6106f5565b610216610211366004610b42565b610713565b6040516101409190610fdb565b61015c610231366004610c49565b610719565b610249610244366004610bb2565b61088b565b604051610140929190610fc0565b61025f6108a2565b6040516101409190610de3565b61015c61027a366004610d7a565b6108b1565b61015c6108b8565b61015c610295366004610cfa565b6108ba565b6102a2610b19565b92915050565b6102b3846001610acc565b6102bc81610ad0565b60405133906001600160a01b0386169082907f7974a8be0442934f73716b6e7e922977e52ed732b84e58b203b05e612706d02e906102fe908690600090610e60565b60405180910390a35050505050565b6001600160a01b03919091166000908152603460205260409020805460ff1916911515919091179055565b6001600160a01b03811660009081526033602052604090205460ff165b919050565b610365816001610acc565b6000816001600160a01b031663ed83d79c6040518163ffffffff1660e01b815260040160206040518083038186803b1580156103a057600080fd5b505afa1580156103b4573d6000803e3d6000fd5b505050506040513d601f19601f820116820180604052508101906103d89190610d9a565b90506000826001600160a01b031663ffbf688e6040518163ffffffff1660e01b815260040160206040518083038186803b15801561041557600080fd5b505afa158015610429573d6000803e3d6000fd5b505050506040513d601f19601f8201168201806040525081019061044d9190610d9a565b9050600061045b8383610b06565b90506000846001600160a01b031663fdf262b76040518163ffffffff1660e01b815260040160206040518083038186803b15801561049857600080fd5b505afa1580156104ac573d6000803e3d6000fd5b505050506040513d601f19601f820116820180604052508101906104d09190610d5e565b505050505050565b6104e3856001610acc565b6104ec81610ad0565b6040517fab98de6500000000000000000000000000000000000000000000000000000000815233906001600160a01b0387169063ab98de659061053790879087908790600401610fe4565b600060405180830381600087803b15801561055157600080fd5b505af1158015610565573d6000803e3d6000fd5b50505050505050505050565b821580159061057f57508315155b604051806040016040528060018152602001603160f81b815250906105c05760405162461bcd60e51b81526004016105b79190610e6e565b60405180910390fd5b506040517f55289e6c00000000000000000000000000000000000000000000000000000000815233906001600160a01b038816906355289e6c906106109089908990889088908890600401610e23565b600060405180830381600087803b15801561062a57600080fd5b505af115801561063e573d6000803e3d6000fd5b5050505050505050505050565b6040517f2f86e2dd00000000000000000000000000000000000000000000000000000000815233906001600160a01b03851690632f86e2dd90610692908490600401610de3565b600060405180830381600087803b1580156106ac57600080fd5b505af11580156106c0573d6000803e3d6000fd5b5050505050505050565b6001600160a01b03919091166000908152603360205260409020805460ff1916911515919091179055565b6001600160a01b031660009081526034602052604090205460ff1690565b50600090565b6040517fa2146ad10000000000000000000000000000000000000000000000000000000081526001600160a01b0384169063a2146ad1906107609084908690600401610e60565b60206040518083038186803b15801561077857600080fd5b505afa15801561078c573d6000803e3d6000fd5b505050506040513d601f19601f820116820180604052508101906107b09190610b96565b1515600114156107d25760405162461bcd60e51b81526004016105b790610f7b565b6040517f27dcf6070000000000000000000000000000000000000000000000000000000081526001600160a01b038416906327dcf607906108199085908590600401610e60565b600060405180830381600087803b15801561083357600080fd5b505af1158015610847573d6000803e3d6000fd5b505050507f3f2bd3200db8555a709c17a98d271f1fd7fc60438eecbff1f39f9def9a21314083838360405161087e93929190610df7565b60405180910390a1505050565b610893610b19565b61089b610b19565b9250929050565b6032546001600160a01b031681565b5050505050565b565b6000876001600160a01b03166353aad1d96040518163ffffffff1660e01b8152600401602060405180830381600087803b1580156108f757600080fd5b505af115801561090b573d6000803e3d6000fd5b505050506040513d601f19601f8201168201806040525081019061092f9190610d9a565b9050600084600181111561095357634e487b7160e01b600052602160045260246000fd5b141561097d578083126109785760405162461bcd60e51b81526004016105b790610f1e565b61099c565b80831361099c5760405162461bcd60e51b81526004016105b790610ec1565b6040517ff4decfc400000000000000000000000000000000000000000000000000000000815233906000906001600160a01b038b169063f4decfc4906109f0908c908c908c908c908c908c90600401610ffa565b602060405180830381600087803b158015610a0a57600080fd5b505af1158015610a1e573d6000803e3d6000fd5b505050506040513d601f19601f82011682018060405250810190610a429190610d9a565b6040517f3dd03c450000000000000000000000000000000000000000000000000000000081529091506001600160a01b038b1690633dd03c4590610a8e90859089908690600401610df7565b600060405180830381600087803b158015610aa857600080fd5b505af1158015610abc573d6000803e3d6000fd5b5050505050505050505050505050565b5050565b6040805180820190915260018152603160f81b602082015281610acc5760405162461bcd60e51b81526004016105b79190610e6e565b6000610b128284611030565b9392505050565b604051806040016040528060008152602001600081525090565b80356002811061035557600080fd5b600060208284031215610b53578081fd5b8135610b128161105b565b60008060408385031215610b70578081fd5b8235610b7b8161105b565b91506020830135610b8b81611073565b809150509250929050565b600060208284031215610ba7578081fd5b8151610b1281611073565b60008060408385031215610bc4578182fd5b8235610bcf8161105b565b91506020830135610b8b8161105b565b60008060008060008060c08789031215610bf7578182fd5b8635610c028161105b565b9550610c1060208801610b33565b94506040870135935060608701359250608087013561ffff81168114610c34578283fd5b8092505060a087013590509295509295509295565b600080600060608486031215610c5d578283fd5b8335610c688161105b565b95602085013595506040909401359392505050565b60008060008060808587031215610c92578384fd5b8435610c9d8161105b565b966020860135965060408601359560600135945092505050565b600080600080600060a08688031215610cce578081fd5b8535610cd98161105b565b97602087013597506040870135966060810135965060800135945092505050565b600080600080600080600060e0888a031215610d14578485fd5b8735610d1f8161105b565b9650602088013595506040880135945060608801359350610d4260808901610b33565b925060a0880135915060c0880135905092959891949750929550565b600060208284031215610d6f578081fd5b8151610b128161105b565b600080600080600060a08688031215610d91578283fd5b610cd986610b33565b600060208284031215610dab578081fd5b5051919050565b60028110610dd057634e487b7160e01b600052602160045260246000fd5b9052565b80518252602090810151910152565b6001600160a01b0391909116815260200190565b6001600160a01b039390931683526020830191909152604082015260600190565b901515815260200190565b60a08101610e318288610db2565b85602083015261ffff851660408301528360608301526001600160a01b03831660808301529695505050505050565b918252602082015260400190565b6000602080835283518082850152825b81811015610e9a57858101830151858201604001528201610e7e565b81811115610eab5783604083870101525b50601f01601f1916929092016040019392505050565b6020808252602e908201527f596f7572206f726465726564207072696365206973206c6f776572207468616e60408201527f2063757272656e74207072696365000000000000000000000000000000000000606082015260800190565b6020808252602f908201527f596f7572206f726465726564207072696365206973206869676865722074686160408201527f6e2063757272656e742070726963650000000000000000000000000000000000606082015260800190565b60208082526017908201527f596f7572206f7264657220686173206578656375746564000000000000000000604082015260600190565b604081016102a28284610dd4565b60808101610fce8285610dd4565b610b126040830184610dd4565b90815260200190565b9283526020830191909152604082015260600190565b868152602081018690526040810185905260c0810161101c6060830186610db2565b608082019390935260a00152949350505050565b600081600019048311821515161561105657634e487b7160e01b81526011600452602481fd5b500290565b6001600160a01b038116811461107057600080fd5b50565b801515811461107057600080fdfea26469706673582212206e3a21445279ccc6d923d4665ec661c624e56b88599a7e0fb041a9876aeb5cf664736f6c63430008000033",
  "linkReferences": {},
  "deployedLinkReferences": {}
}