{
  "_format": "hh-sol-artifact-1",
  "contractName": "InsuranceFund",
  "sourceName": "contracts/protocol/position/InsuranceFund.sol",
  "abi": [
    {
      "anonymous": false,
      "inputs": [
        {
          "indexed": true,
          "internalType": "address",
          "name": "previousOwner",
          "type": "address"
        },
        {
          "indexed": true,
          "internalType": "address",
          "name": "newOwner",
          "type": "address"
        }
      ],
      "name": "OwnershipTransferred",
      "type": "event"
    },
    {
      "inputs": [],
      "name": "candidate",
      "outputs": [
        {
          "internalType": "address",
          "name": "",
          "type": "address"
        }
      ],
      "stateMutability": "view",
      "type": "function"
    },
    {
      "inputs": [],
      "name": "owner",
      "outputs": [
        {
          "internalType": "address",
          "name": "",
          "type": "address"
        }
      ],
      "stateMutability": "view",
      "type": "function"
    },
    {
      "inputs": [],
      "name": "renounceOwnership",
      "outputs": [],
      "stateMutability": "nonpayable",
      "type": "function"
    },
    {
      "inputs": [
        {
          "internalType": "address",
          "name": "newOwner",
          "type": "address"
        }
      ],
      "name": "setOwner",
      "outputs": [],
      "stateMutability": "nonpayable",
      "type": "function"
    },
    {
      "inputs": [],
      "name": "updateOwner",
      "outputs": [],
      "stateMutability": "nonpayable",
      "type": "function"
    }
  ],
  "bytecode": "0x608060405234801561001057600080fd5b506105ca806100206000396000f3fe608060405234801561001057600080fd5b50600436106100675760003560e01c8063715018a611610050578063715018a61461009f5780638da5cb5b146100a7578063bc5920ba146100af57610067565b806313af40351461006c5780636c8381f814610081575b600080fd5b61007f61007a366004610324565b6100b7565b005b6100896101a6565b6040516100969190610352565b60405180910390f35b61007f6101b5565b610089610241565b61007f610250565b6100bf610320565b6065546001600160a01b039081169116146100f55760405162461bcd60e51b81526004016100ec906104da565b60405180910390fd5b6001600160a01b03811661011b5760405162461bcd60e51b81526004016100ec90610420565b6065546001600160a01b03828116911614156101495760405162461bcd60e51b81526004016100ec90610537565b6066546001600160a01b03828116911614156101775760405162461bcd60e51b81526004016100ec90610366565b6066805473ffffffffffffffffffffffffffffffffffffffff19166001600160a01b0392909216919091179055565b6066546001600160a01b031690565b6101bd610320565b6065546001600160a01b039081169116146101ea5760405162461bcd60e51b81526004016100ec906104da565b6065546040516000916001600160a01b0316907f8be0079c531659141344cd1fd0a4f28419497f9722a3daafe3b4186f6b6457e0908390a36065805473ffffffffffffffffffffffffffffffffffffffff19169055565b6065546001600160a01b031690565b6066546001600160a01b03166102785760405162461bcd60e51b81526004016100ec9061047d565b610280610320565b6066546001600160a01b039081169116146102ad5760405162461bcd60e51b81526004016100ec906103c3565b6066546065546040516001600160a01b0392831692909116907f8be0079c531659141344cd1fd0a4f28419497f9722a3daafe3b4186f6b6457e090600090a3606680546065805473ffffffffffffffffffffffffffffffffffffffff199081166001600160a01b03841617909155169055565b3390565b600060208284031215610335578081fd5b81356001600160a01b038116811461034b578182fd5b9392505050565b6001600160a01b0391909116815260200190565b60208082526027908201527f5065727046694f776e61626c65557067726164653a2073616d6520617320636160408201527f6e64696461746500000000000000000000000000000000000000000000000000606082015260800190565b60208082526027908201527f5065727046694f776e61626c65557067726164653a206e6f7420746865206e6560408201527f77206f776e657200000000000000000000000000000000000000000000000000606082015260800190565b60208082526022908201527f5065727046694f776e61626c65557067726164653a207a65726f20616464726560408201527f7373000000000000000000000000000000000000000000000000000000000000606082015260800190565b6020808252602f908201527f5065727046694f776e61626c65557067726164653a2063616e6469646174652060408201527f6973207a65726f20616464726573730000000000000000000000000000000000606082015260800190565b6020808252602d908201527f5065727046694f776e61626c65557067726164653a2063616c6c65722069732060408201527f6e6f7420746865206f776e657200000000000000000000000000000000000000606082015260800190565b60208082526026908201527f5065727046694f776e61626c65557067726164653a2073616d65206173206f7260408201527f6967696e616c000000000000000000000000000000000000000000000000000060608201526080019056fea264697066735822122064187fa940ff2727e7cea7ff00e04e5b479b1898983b707c8d0bc5086b3df04664736f6c63430008000033",
  "linkReferences": {},
  "deployedLinkReferences": {}
}