{
  "_format": "hh-sol-artifact-1",
  "contractName": "ChainLinkPriceFeed",
  "sourceName": "contracts/protocol/position/ChainLinkPriceFeed.sol",
  "abi": [
    {
      "anonymous": false,
      "inputs": [
        {
          "indexed": true,
          "internalType": "address",
          "name": "previousOwner",
          "type": "address"
        },
        {
          "indexed": true,
          "internalType": "address",
          "name": "newOwner",
          "type": "address"
        }
      ],
      "name": "OwnershipTransferred",
      "type": "event"
    },
    {
      "inputs": [
        {
          "internalType": "bytes32",
          "name": "_priceFeedKey",
          "type": "bytes32"
        },
        {
          "internalType": "address",
          "name": "_aggregator",
          "type": "address"
        }
      ],
      "name": "addAggregator",
      "outputs": [],
      "stateMutability": "nonpayable",
      "type": "function"
    },
    {
      "inputs": [],
      "name": "candidate",
      "outputs": [
        {
          "internalType": "address",
          "name": "",
          "type": "address"
        }
      ],
      "stateMutability": "view",
      "type": "function"
    },
    {
      "inputs": [
        {
          "internalType": "bytes32",
          "name": "_priceFeedKey",
          "type": "bytes32"
        }
      ],
      "name": "getAggregator",
      "outputs": [
        {
          "internalType": "contract AggregatorV3Interface",
          "name": "",
          "type": "address"
        }
      ],
      "stateMutability": "view",
      "type": "function"
    },
    {
      "inputs": [
        {
          "internalType": "bytes32",
          "name": "_priceFeedKey",
          "type": "bytes32"
        }
      ],
      "name": "getLatestTimestamp",
      "outputs": [
        {
          "internalType": "uint256",
          "name": "",
          "type": "uint256"
        }
      ],
      "stateMutability": "view",
      "type": "function"
    },
    {
      "inputs": [
        {
          "internalType": "bytes32",
          "name": "_priceFeedKey",
          "type": "bytes32"
        },
        {
          "internalType": "uint256",
          "name": "_numOfRoundBack",
          "type": "uint256"
        }
      ],
      "name": "getPreviousPrice",
      "outputs": [
        {
          "internalType": "uint256",
          "name": "",
          "type": "uint256"
        }
      ],
      "stateMutability": "view",
      "type": "function"
    },
    {
      "inputs": [
        {
          "internalType": "bytes32",
          "name": "_priceFeedKey",
          "type": "bytes32"
        },
        {
          "internalType": "uint256",
          "name": "_numOfRoundBack",
          "type": "uint256"
        }
      ],
      "name": "getPreviousTimestamp",
      "outputs": [
        {
          "internalType": "uint256",
          "name": "",
          "type": "uint256"
        }
      ],
      "stateMutability": "view",
      "type": "function"
    },
    {
      "inputs": [
        {
          "internalType": "bytes32",
          "name": "_priceFeedKey",
          "type": "bytes32"
        }
      ],
      "name": "getPrice",
      "outputs": [
        {
          "internalType": "uint256",
          "name": "",
          "type": "uint256"
        }
      ],
      "stateMutability": "view",
      "type": "function"
    },
    {
      "inputs": [
        {
          "internalType": "bytes32",
          "name": "_priceFeedKey",
          "type": "bytes32"
        },
        {
          "internalType": "uint256",
          "name": "_interval",
          "type": "uint256"
        }
      ],
      "name": "getTwapPrice",
      "outputs": [
        {
          "internalType": "uint256",
          "name": "",
          "type": "uint256"
        }
      ],
      "stateMutability": "view",
      "type": "function"
    },
    {
      "inputs": [],
      "name": "initialize",
      "outputs": [],
      "stateMutability": "nonpayable",
      "type": "function"
    },
    {
      "inputs": [],
      "name": "owner",
      "outputs": [
        {
          "internalType": "address",
          "name": "",
          "type": "address"
        }
      ],
      "stateMutability": "view",
      "type": "function"
    },
    {
      "inputs": [
        {
          "internalType": "bytes32",
          "name": "",
          "type": "bytes32"
        }
      ],
      "name": "priceFeedDecimalMap",
      "outputs": [
        {
          "internalType": "uint8",
          "name": "",
          "type": "uint8"
        }
      ],
      "stateMutability": "view",
      "type": "function"
    },
    {
      "inputs": [
        {
          "internalType": "uint256",
          "name": "",
          "type": "uint256"
        }
      ],
      "name": "priceFeedKeys",
      "outputs": [
        {
          "internalType": "bytes32",
          "name": "",
          "type": "bytes32"
        }
      ],
      "stateMutability": "view",
      "type": "function"
    },
    {
      "inputs": [
        {
          "internalType": "bytes32",
          "name": "",
          "type": "bytes32"
        }
      ],
      "name": "priceFeedMap",
      "outputs": [
        {
          "internalType": "contract AggregatorV3Interface",
          "name": "",
          "type": "address"
        }
      ],
      "stateMutability": "view",
      "type": "function"
    },
    {
      "inputs": [
        {
          "internalType": "bytes32",
          "name": "_priceFeedKey",
          "type": "bytes32"
        }
      ],
      "name": "removeAggregator",
      "outputs": [],
      "stateMutability": "nonpayable",
      "type": "function"
    },
    {
      "inputs": [],
      "name": "renounceOwnership",
      "outputs": [],
      "stateMutability": "nonpayable",
      "type": "function"
    },
    {
      "inputs": [
        {
          "internalType": "bytes32",
          "name": "_priceFeedKey",
          "type": "bytes32"
        },
        {
          "internalType": "uint256",
          "name": "_price",
          "type": "uint256"
        },
        {
          "internalType": "uint256",
          "name": "_timestamp",
          "type": "uint256"
        },
        {
          "internalType": "uint256",
          "name": "_roundId",
          "type": "uint256"
        }
      ],
      "name": "setLatestData",
      "outputs": [],
      "stateMutability": "nonpayable",
      "type": "function"
    },
    {
      "inputs": [
        {
          "internalType": "address",
          "name": "newOwner",
          "type": "address"
        }
      ],
      "name": "setOwner",
      "outputs": [],
      "stateMutability": "nonpayable",
      "type": "function"
    },
    {
      "inputs": [],
      "name": "updateOwner",
      "outputs": [],
      "stateMutability": "nonpayable",
      "type": "function"
    }
  ],
  "bytecode": "0x608060405234801561001057600080fd5b50611a74806100206000396000f3fe608060405234801561001057600080fd5b50600436106101365760003560e01c80636c8381f8116100b25780638129fc1c11610081578063914b14c511610066578063914b14c51461025e578063a2173df414610271578063bc5920ba1461028457610136565b80638129fc1c1461024e5780638da5cb5b1461025657610136565b80636c8381f81461020b5780636d4b858514610213578063715018a6146102335780637ad226321461023b57610136565b80632bed9e0c11610109578063331b1816116100ee578063331b1816146101d25780633f0e084f146101e557806359bb180e146101f857610136565b80632bed9e0c146101ac57806331d98b3f146101bf57610136565b8063031d64bd1461013b57806313af403514610150578063250742cc146101635780632a0ab1dd1461018c575b600080fd5b61014e610149366004611431565b61028c565b005b61014e61015e3660046113b3565b6102ad565b6101766101713660046113cd565b610386565b60405161018391906114d2565b60405180910390f35b61019f61019a3660046113cd565b6103a1565b60405161018391906114e6565b61014e6101ba3660046113cd565b6103c2565b61019f6101cd3660046113cd565b61053c565b6101766101e03660046113cd565b61058a565b61014e6101f33660046113e5565b6105a5565b61019f610206366004611410565b61070a565b61017661089f565b6102266102213660046113cd565b6108ae565b6040516101839190611852565b61014e6108c3565b61019f6102493660046113cd565b610942565b61014e61096e565b6101766109f9565b61019f61026c366004611410565b610a08565b61019f61027f366004611410565b610b8f565b61014e610d60565b60405162461bcd60e51b81526004016102a490611542565b60405180910390fd5b6102b5610e23565b6065546001600160a01b039081169116146102e25760405162461bcd60e51b81526004016102a49061174a565b6001600160a01b0381166103085760405162461bcd60e51b81526004016102a490611633565b6065546001600160a01b03828116911614156103365760405162461bcd60e51b81526004016102a4906117de565b6066546001600160a01b03828116911614156103645760405162461bcd60e51b81526004016102a490611579565b606680546001600160a01b0319166001600160a01b0392909216919091179055565b60cb602052600090815260409020546001600160a01b031681565b60cc81815481106103b157600080fd5b600091825260209091200154905081565b6103ca610e23565b6065546001600160a01b039081169116146103f75760405162461bcd60e51b81526004016102a49061174a565b6104086104038261058a565b610e27565b600081815260cb6020908152604080832080546001600160a01b031916905560cd9091528120805460ff1916905560cc54905b81811015610537578260cc828154811061046557634e487b7160e01b600052603260045260246000fd5b90600052602060002001541415610525576104816001836119cb565b81146104eb5760cc6104946001846119cb565b815481106104b257634e487b7160e01b600052603260045260246000fd5b906000526020600020015460cc82815481106104de57634e487b7160e01b600052603260045260246000fd5b6000918252602090912001555b60cc80548061050a57634e487b7160e01b600052603160045260246000fd5b60019003818190600052602060002001600090559055610537565b8061052f81611a0d565b91505061043b565b505050565b6000806105488361058a565b905061055381610e27565b600061055e82610e86565b50600086815260cd60205260409020549092506105809150829060ff16610f46565b925050505b919050565b600090815260cb60205260409020546001600160a01b031690565b6105ad610e23565b6065546001600160a01b039081169116146105da5760405162461bcd60e51b81526004016102a49061174a565b6105e381610e27565b600082815260cb60205260409020546001600160a01b03166106355760cc80546001810182556000919091527f47197230e1e4b29fc0bd84d7d78966c0925452aff72a2a121538b102457e9ebe018290555b600082815260cb602090815260409182902080546001600160a01b0319166001600160a01b03851690811790915582517f313ce5670000000000000000000000000000000000000000000000000000000081529251909263313ce567926004808301939192829003018186803b1580156106ae57600080fd5b505afa1580156106c2573d6000803e3d6000fd5b505050506040513d601f19601f820116820180604052508101906106e691906114b1565b600092835260cd6020526040909220805460ff191660ff9093169290921790915550565b6000806107168461058a565b905061072181610e27565b6000816001600160a01b031663feaf968c6040518163ffffffff1660e01b815260040160a06040518083038186803b15801561075c57600080fd5b505afa158015610770573d6000803e3d6000fd5b505050506040513d601f19601f820116820180604052508101906107949190611462565b50505050905060008169ffffffffffffffffffff161180156107c25750838169ffffffffffffffffffff1610155b604051806040016040528060018152602001603360f81b815250906107fa5760405162461bcd60e51b81526004016102a491906114ef565b506000806001600160a01b038416639a6fc8f561081788866119e2565b6040518263ffffffff1660e01b8152600401610833919061183b565b60a06040518083038186803b15801561084b57600080fd5b505afa15801561085f573d6000803e3d6000fd5b505050506040513d601f19601f820116820180604052508101906108839190611462565b5093505092505061089382610f78565b93505050505b92915050565b6066546001600160a01b031690565b60cd6020526000908152604090205460ff1681565b6108cb610e23565b6065546001600160a01b039081169116146108f85760405162461bcd60e51b81526004016102a49061174a565b6065546040516000916001600160a01b0316907f8be0079c531659141344cd1fd0a4f28419497f9722a3daafe3b4186f6b6457e0908390a3606580546001600160a01b0319169055565b60008061094e8361058a565b905061095981610e27565b600061096482610e86565b9695505050505050565b600054610100900460ff16806109875750610987610fcd565b80610995575060005460ff16155b6109b15760405162461bcd60e51b81526004016102a490611690565b600054610100900460ff161580156109dc576000805460ff1961ff0019909116610100171660011790555b6109e4610fd3565b80156109f6576000805461ff00191690555b50565b6065546001600160a01b031690565b600080610a148461058a565b9050610a1f81610e27565b6000816001600160a01b031663feaf968c6040518163ffffffff1660e01b815260040160a06040518083038186803b158015610a5a57600080fd5b505afa158015610a6e573d6000803e3d6000fd5b505050506040513d601f19601f82011682018060405250810190610a929190611462565b50505050905060008169ffffffffffffffffffff16118015610ac05750838169ffffffffffffffffffff1610155b610adc5760405162461bcd60e51b81526004016102a4906117a7565b60006001600160a01b038316639a6fc8f5610af787856119e2565b6040518263ffffffff1660e01b8152600401610b13919061183b565b60a06040518083038186803b158015610b2b57600080fd5b505afa158015610b3f573d6000803e3d6000fd5b505050506040513d601f19601f82011682018060405250810190610b639190611462565b505050915050610b7281610f78565b600086815260cd602052604090205461089390829060ff16610f46565b600080610b9b8461058a565b9050610ba681610e27565b60408051808201909152600181527f3100000000000000000000000000000000000000000000000000000000000000602082015283610bf85760405162461bcd60e51b81526004016102a491906114ef565b50600084815260cd602052604081205460ff16908080610c1785610e86565b9250925092506000610c3188610c2b611051565b90611055565b905080821080610c4b575069ffffffffffffffffffff8416155b15610c6757610c5a8386610f46565b9650505050505050610899565b816000610c7682610c2b611051565b90506000610c848683611061565b90505b69ffffffffffffffffffff8716610cbb57610cab610ca5828461106d565b89610f46565b9950505050505050505050610899565b610cc66001886119e2565b9650600080610cd58b8a611079565b9250925050858111610d0857610cff610cf8610cf18789611055565b8490611061565b84906111d9565b92505050610d43565b6000610d148683611055565b9050610d2a610d238483611061565b85906111d9565b9350610d3685826111d9565b9450819550505050610c87565b610d50610ca5828d61106d565b9c9b505050505050505050505050565b6066546001600160a01b0316610d885760405162461bcd60e51b81526004016102a4906116ed565b610d90610e23565b6066546001600160a01b03908116911614610dbd5760405162461bcd60e51b81526004016102a4906115d6565b6066546065546040516001600160a01b0392831692909116907f8be0079c531659141344cd1fd0a4f28419497f9722a3daafe3b4186f6b6457e090600090a360668054606580546001600160a01b03199081166001600160a01b03841617909155169055565b3390565b60408051808201909152600181527f320000000000000000000000000000000000000000000000000000000000000060208201526001600160a01b038216610e825760405162461bcd60e51b81526004016102a491906114ef565b5050565b600080600080600080866001600160a01b031663feaf968c6040518163ffffffff1660e01b815260040160a06040518083038186803b158015610ec857600080fd5b505afa158015610edc573d6000803e3d6000fd5b505050506040513d601f19601f82011682018060405250810190610f009190611462565b50935050925092508194506000821215610f3a57610f1d836111e5565b610f3187610f2c6001866119e2565b611079565b90965090935090505b91969395509093505050565b6000610f71610f5960ff8416600a6118de565b610f6b85670de0b6b3a7640000611061565b9061106d565b9392505050565b60408051808201909152600181527f3400000000000000000000000000000000000000000000000000000000000000602082015260008213610e825760405162461bcd60e51b81526004016102a491906114ef565b303b1590565b600054610100900460ff1680610fec5750610fec610fcd565b80610ffa575060005460ff16155b6110165760405162461bcd60e51b81526004016102a490611690565b600054610100900460ff16158015611041576000805460ff1961ff0019909116610100171660011790555b611049611227565b6109e46112a8565b4290565b6000610f7182846119cb565b6000610f7182846119ac565b6000610f718284611878565b600080600080600080876001600160a01b0316639a6fc8f5886040518263ffffffff1660e01b81526004016110ae919061183b565b60a06040518083038186803b1580156110c657600080fd5b505afa1580156110da573d6000803e3d6000fd5b505050506040513d601f19601f820116820180604052508101906110fe9190611462565b50935050925092505b60008212156111cb57611119836111e5565b6111246001846119e2565b6040517f9a6fc8f50000000000000000000000000000000000000000000000000000000081529093506001600160a01b03891690639a6fc8f59061116c90869060040161183b565b60a06040518083038186803b15801561118457600080fd5b505afa158015611198573d6000803e3d6000fd5b505050506040513d601f19601f820116820180604052508101906111bc9190611462565b50919450909250611107915050565b919450925090509250925092565b6000610f718284611860565b6040805180820190915260018152603360f81b602082015269ffffffffffffffffffff8216610e825760405162461bcd60e51b81526004016102a491906114ef565b600054610100900460ff16806112405750611240610fcd565b8061124e575060005460ff16155b61126a5760405162461bcd60e51b81526004016102a490611690565b600054610100900460ff161580156109e4576000805460ff1961ff00199091166101001716600117905580156109f6576000805461ff001916905550565b600054610100900460ff16806112c157506112c1610fcd565b806112cf575060005460ff16155b6112eb5760405162461bcd60e51b81526004016102a490611690565b600054610100900460ff16158015611316576000805460ff1961ff0019909116610100171660011790555b6000611320610e23565b606580546001600160a01b0319166001600160a01b038316908117909155604051919250906000907f8be0079c531659141344cd1fd0a4f28419497f9722a3daafe3b4186f6b6457e0908290a35080156109f6576000805461ff001916905550565b80356001600160a01b038116811461058557600080fd5b805169ffffffffffffffffffff8116811461058557600080fd5b6000602082840312156113c4578081fd5b610f7182611382565b6000602082840312156113de578081fd5b5035919050565b600080604083850312156113f7578081fd5b8235915061140760208401611382565b90509250929050565b60008060408385031215611422578182fd5b50508035926020909101359150565b60008060008060808587031215611446578182fd5b5050823594602084013594506040840135936060013592509050565b600080600080600060a08688031215611479578081fd5b61148286611399565b94506020860151935060408601519250606086015191506114a560808701611399565b90509295509295909350565b6000602082840312156114c2578081fd5b815160ff81168114610f71578182fd5b6001600160a01b0391909116815260200190565b90815260200190565b6000602080835283518082850152825b8181101561151b578581018301518582016040015282016114ff565b8181111561152c5783604083870101525b50601f01601f1916929092016040019392505050565b6020808252600b908201527f6e6f7420737570706f7274000000000000000000000000000000000000000000604082015260600190565b60208082526027908201527f5065727046694f776e61626c65557067726164653a2073616d6520617320636160408201527f6e64696461746500000000000000000000000000000000000000000000000000606082015260800190565b60208082526027908201527f5065727046694f776e61626c65557067726164653a206e6f7420746865206e6560408201527f77206f776e657200000000000000000000000000000000000000000000000000606082015260800190565b60208082526022908201527f5065727046694f776e61626c65557067726164653a207a65726f20616464726560408201527f7373000000000000000000000000000000000000000000000000000000000000606082015260800190565b6020808252602e908201527f436f6e747261637420696e7374616e63652068617320616c726561647920626560408201527f656e20696e697469616c697a6564000000000000000000000000000000000000606082015260800190565b6020808252602f908201527f5065727046694f776e61626c65557067726164653a2063616e6469646174652060408201527f6973207a65726f20616464726573730000000000000000000000000000000000606082015260800190565b6020808252602d908201527f5065727046694f776e61626c65557067726164653a2063616c6c65722069732060408201527f6e6f7420746865206f776e657200000000000000000000000000000000000000606082015260800190565b60208082526012908201527f4e6f7420656e6f75676820686973746f72790000000000000000000000000000604082015260600190565b60208082526026908201527f5065727046694f776e61626c65557067726164653a2073616d65206173206f7260408201527f6967696e616c0000000000000000000000000000000000000000000000000000606082015260800190565b69ffffffffffffffffffff91909116815260200190565b60ff91909116815260200190565b6000821982111561187357611873611a28565b500190565b60008261189357634e487b7160e01b81526012600452602481fd5b500490565b80825b60018086116118aa57506118d5565b8187048211156118bc576118bc611a28565b808616156118c957918102915b9490941c93800261189b565b94509492505050565b6000610f7160001984846000826118f757506001610f71565b8161190457506000610f71565b816001811461191a576002811461192457611951565b6001915050610f71565b60ff84111561193557611935611a28565b6001841b91508482111561194b5761194b611a28565b50610f71565b5060208310610133831016604e8410600b8410161715611984575081810a8381111561197f5761197f611a28565b610f71565b6119918484846001611898565b8086048211156119a3576119a3611a28565b02949350505050565b60008160001904831182151516156119c6576119c6611a28565b500290565b6000828210156119dd576119dd611a28565b500390565b600069ffffffffffffffffffff83811690831681811015611a0557611a05611a28565b039392505050565b6000600019821415611a2157611a21611a28565b5060010190565b634e487b7160e01b600052601160045260246000fdfea264697066735822122045037d68b647443473e710f7af4a598c2e06da7a72d62b8165c88f7cf0e7c43064736f6c63430008000033",
  "linkReferences": {},
  "deployedLinkReferences": {}
}