{
  "_format": "hh-sol-artifact-1",
  "contractName": "Amm",
  "sourceName": "contracts/protocol/position/Amm.sol",
  "abi": [
    {
      "anonymous": false,
      "inputs": [
        {
          "indexed": false,
          "internalType": "int256",
          "name": "tick",
          "type": "int256"
        },
        {
          "indexed": false,
          "internalType": "uint256",
          "name": "index",
          "type": "uint256"
        }
      ],
      "name": "CancelOrder",
      "type": "event"
    },
    {
      "anonymous": false,
      "inputs": [
        {
          "indexed": false,
          "internalType": "uint256",
          "name": "rate",
          "type": "uint256"
        },
        {
          "indexed": false,
          "internalType": "uint256",
          "name": "underlyingPrice",
          "type": "uint256"
        }
      ],
      "name": "FundingRateUpdated",
      "type": "event"
    },
    {
      "anonymous": false,
      "inputs": [
        {
          "indexed": false,
          "internalType": "int256",
          "name": "tick",
          "type": "int256"
        },
        {
          "indexed": false,
          "internalType": "uint256",
          "name": "index",
          "type": "uint256"
        }
      ],
      "name": "OpenLimitOrder",
      "type": "event"
    },
    {
      "anonymous": false,
      "inputs": [
        {
          "indexed": false,
          "internalType": "int256",
          "name": "tick",
          "type": "int256"
        },
        {
          "indexed": false,
          "internalType": "uint256",
          "name": "index",
          "type": "uint256"
        }
      ],
      "name": "OpenMarketOrder",
      "type": "event"
    },
    {
      "anonymous": false,
      "inputs": [
        {
          "indexed": false,
          "internalType": "enum IAmm.Dir",
          "name": "dir",
          "type": "uint8"
        },
        {
          "indexed": false,
          "internalType": "uint256",
          "name": "quoteAssetAmount",
          "type": "uint256"
        },
        {
          "indexed": false,
          "internalType": "uint256",
          "name": "baseAssetAmount",
          "type": "uint256"
        }
      ],
      "name": "SwapInput",
      "type": "event"
    },
    {
      "anonymous": false,
      "inputs": [
        {
          "indexed": false,
          "internalType": "enum IAmm.Dir",
          "name": "dir",
          "type": "uint8"
        },
        {
          "indexed": false,
          "internalType": "uint256",
          "name": "quoteAssetAmount",
          "type": "uint256"
        },
        {
          "indexed": false,
          "internalType": "uint256",
          "name": "baseAssetAmount",
          "type": "uint256"
        }
      ],
      "name": "SwapOutput",
      "type": "event"
    },
    {
      "inputs": [
        {
          "internalType": "uint256",
          "name": "index",
          "type": "uint256"
        },
        {
          "internalType": "int256",
          "name": "tick",
          "type": "int256"
        },
        {
          "internalType": "uint256",
          "name": "_amountAdded",
          "type": "uint256"
        }
      ],
      "name": "addMargin",
      "outputs": [],
      "stateMutability": "nonpayable",
      "type": "function"
    },
    {
      "inputs": [
        {
          "internalType": "address",
          "name": "_trader",
          "type": "address"
        },
        {
          "internalType": "int256",
          "name": "tick",
          "type": "int256"
        },
        {
          "internalType": "uint256",
          "name": "index",
          "type": "uint256"
        }
      ],
      "name": "addPositionMap",
      "outputs": [],
      "stateMutability": "nonpayable",
      "type": "function"
    },
    {
      "inputs": [],
      "name": "ammState",
      "outputs": [
        {
          "internalType": "uint256",
          "name": "price",
          "type": "uint256"
        },
        {
          "internalType": "int256",
          "name": "tick",
          "type": "int256"
        },
        {
          "internalType": "bool",
          "name": "unlocked",
          "type": "bool"
        }
      ],
      "stateMutability": "view",
      "type": "function"
    },
    {
      "inputs": [
        {
          "internalType": "uint256",
          "name": "_index",
          "type": "uint256"
        },
        {
          "internalType": "int256",
          "name": "_tick",
          "type": "int256"
        }
      ],
      "name": "cancelOrder",
      "outputs": [],
      "stateMutability": "nonpayable",
      "type": "function"
    },
    {
      "inputs": [
        {
          "internalType": "address",
          "name": "_trader",
          "type": "address"
        }
      ],
      "name": "closePosition",
      "outputs": [],
      "stateMutability": "nonpayable",
      "type": "function"
    },
    {
      "inputs": [],
      "name": "fundingBufferPeriod",
      "outputs": [
        {
          "internalType": "uint256",
          "name": "",
          "type": "uint256"
        }
      ],
      "stateMutability": "view",
      "type": "function"
    },
    {
      "inputs": [],
      "name": "fundingPeriod",
      "outputs": [
        {
          "internalType": "uint256",
          "name": "",
          "type": "uint256"
        }
      ],
      "stateMutability": "view",
      "type": "function"
    },
    {
      "inputs": [],
      "name": "getCurrentTick",
      "outputs": [
        {
          "internalType": "int256",
          "name": "",
          "type": "int256"
        }
      ],
      "stateMutability": "nonpayable",
      "type": "function"
    },
    {
      "inputs": [
        {
          "internalType": "int256",
          "name": "_tick",
          "type": "int256"
        },
        {
          "internalType": "uint256",
          "name": "_index",
          "type": "uint256"
        }
      ],
      "name": "getIsOrderExecuted",
      "outputs": [
        {
          "internalType": "bool",
          "name": "",
          "type": "bool"
        }
      ],
      "stateMutability": "view",
      "type": "function"
    },
    {
      "inputs": [
        {
          "internalType": "int256",
          "name": "_tick",
          "type": "int256"
        },
        {
          "internalType": "uint256",
          "name": "_index",
          "type": "uint256"
        }
      ],
      "name": "getIsWaitingOrder",
      "outputs": [
        {
          "internalType": "bool",
          "name": "",
          "type": "bool"
        }
      ],
      "stateMutability": "view",
      "type": "function"
    },
    {
      "inputs": [],
      "name": "getReserve",
      "outputs": [
        {
          "internalType": "uint256",
          "name": "",
          "type": "uint256"
        },
        {
          "internalType": "uint256",
          "name": "",
          "type": "uint256"
        }
      ],
      "stateMutability": "view",
      "type": "function"
    },
    {
      "inputs": [],
      "name": "getSpotPrice",
      "outputs": [
        {
          "internalType": "uint256",
          "name": "",
          "type": "uint256"
        }
      ],
      "stateMutability": "view",
      "type": "function"
    },
    {
      "inputs": [],
      "name": "getTotalPositionSize",
      "outputs": [
        {
          "internalType": "uint256",
          "name": "",
          "type": "uint256"
        }
      ],
      "stateMutability": "view",
      "type": "function"
    },
    {
      "inputs": [
        {
          "internalType": "uint256",
          "name": "_intervalInSeconds",
          "type": "uint256"
        }
      ],
      "name": "getTwapPrice",
      "outputs": [
        {
          "internalType": "uint256",
          "name": "",
          "type": "uint256"
        }
      ],
      "stateMutability": "view",
      "type": "function"
    },
    {
      "inputs": [],
      "name": "getUnderlyingPrice",
      "outputs": [
        {
          "internalType": "uint256",
          "name": "",
          "type": "uint256"
        }
      ],
      "stateMutability": "view",
      "type": "function"
    },
    {
      "inputs": [
        {
          "internalType": "uint256",
          "name": "_intervalInSeconds",
          "type": "uint256"
        }
      ],
      "name": "getUnderlyingTwapPrice",
      "outputs": [
        {
          "internalType": "uint256",
          "name": "",
          "type": "uint256"
        }
      ],
      "stateMutability": "view",
      "type": "function"
    },
    {
      "inputs": [
        {
          "internalType": "uint256",
          "name": "startPrice",
          "type": "uint256"
        },
        {
          "internalType": "uint256",
          "name": "_quoteAssetReserve",
          "type": "uint256"
        },
        {
          "internalType": "uint256",
          "name": "_baseAssetReserve",
          "type": "uint256"
        },
        {
          "internalType": "uint256",
          "name": "_tradeLimitRatio",
          "type": "uint256"
        },
        {
          "internalType": "uint256",
          "name": "_fundingPeriod",
          "type": "uint256"
        },
        {
          "internalType": "contract IChainLinkPriceFeed",
          "name": "_priceFeed",
          "type": "address"
        },
        {
          "internalType": "uint256",
          "name": "sqrtStartPrice",
          "type": "uint256"
        },
        {
          "internalType": "bytes32",
          "name": "_priceFeedKey",
          "type": "bytes32"
        },
        {
          "internalType": "address",
          "name": "_quoteAsset",
          "type": "address"
        },
        {
          "internalType": "uint256",
          "name": "_fluctuationLimitRatio",
          "type": "uint256"
        },
        {
          "internalType": "uint256",
          "name": "_tollRatio",
          "type": "uint256"
        },
        {
          "internalType": "uint256",
          "name": "_spreadRatio",
          "type": "uint256"
        }
      ],
      "name": "initialize",
      "outputs": [],
      "stateMutability": "nonpayable",
      "type": "function"
    },
    {
      "inputs": [],
      "name": "liquidityDetail",
      "outputs": [
        {
          "internalType": "uint256",
          "name": "liquidity",
          "type": "uint256"
        },
        {
          "internalType": "uint256",
          "name": "baseReserveAmount",
          "type": "uint256"
        },
        {
          "internalType": "uint256",
          "name": "quoteReserveAmount",
          "type": "uint256"
        }
      ],
      "stateMutability": "view",
      "type": "function"
    },
    {
      "inputs": [],
      "name": "nextFundingTime",
      "outputs": [
        {
          "internalType": "uint256",
          "name": "",
          "type": "uint256"
        }
      ],
      "stateMutability": "view",
      "type": "function"
    },
    {
      "inputs": [
        {
          "internalType": "uint256",
          "name": "_amountAssetBase",
          "type": "uint256"
        },
        {
          "internalType": "uint256",
          "name": "_amountAssetQuote",
          "type": "uint256"
        },
        {
          "internalType": "uint256",
          "name": "_limitPrice",
          "type": "uint256"
        },
        {
          "internalType": "enum IAmm.Side",
          "name": "_side",
          "type": "uint8"
        },
        {
          "internalType": "int256",
          "name": "_tick",
          "type": "int256"
        },
        {
          "internalType": "uint256",
          "name": "_leverage",
          "type": "uint256"
        }
      ],
      "name": "openLimit",
      "outputs": [
        {
          "internalType": "uint256",
          "name": "",
          "type": "uint256"
        }
      ],
      "stateMutability": "nonpayable",
      "type": "function"
    },
    {
      "inputs": [
        {
          "internalType": "enum IAmm.Side",
          "name": "side",
          "type": "uint8"
        },
        {
          "internalType": "uint256",
          "name": "quoteAmount",
          "type": "uint256"
        },
        {
          "internalType": "uint256",
          "name": "leverage",
          "type": "uint256"
        },
        {
          "internalType": "uint256",
          "name": "margin",
          "type": "uint256"
        },
        {
          "internalType": "address",
          "name": "_trader",
          "type": "address"
        }
      ],
      "name": "openMarket",
      "outputs": [],
      "stateMutability": "nonpayable",
      "type": "function"
    },
    {
      "inputs": [],
      "name": "priceFeedKey",
      "outputs": [
        {
          "internalType": "bytes32",
          "name": "",
          "type": "bytes32"
        }
      ],
      "stateMutability": "view",
      "type": "function"
    },
    {
      "inputs": [],
      "name": "quoteAsset",
      "outputs": [
        {
          "internalType": "contract IERC20",
          "name": "",
          "type": "address"
        }
      ],
      "stateMutability": "view",
      "type": "function"
    },
    {
      "inputs": [
        {
          "internalType": "uint256",
          "name": "index",
          "type": "uint256"
        },
        {
          "internalType": "int256",
          "name": "tick",
          "type": "int256"
        },
        {
          "internalType": "uint256",
          "name": "_amountRemoved",
          "type": "uint256"
        }
      ],
      "name": "removeMargin",
      "outputs": [],
      "stateMutability": "nonpayable",
      "type": "function"
    },
    {
      "inputs": [
        {
          "internalType": "uint256",
          "name": "quoteReserveAmount",
          "type": "uint256"
        },
        {
          "internalType": "uint256",
          "name": "baseReserveAmount",
          "type": "uint256"
        }
      ],
      "name": "setLiquidityDetail",
      "outputs": [],
      "stateMutability": "nonpayable",
      "type": "function"
    },
    {
      "inputs": [],
      "name": "settleFunding",
      "outputs": [
        {
          "internalType": "uint256",
          "name": "",
          "type": "uint256"
        }
      ],
      "stateMutability": "view",
      "type": "function"
    },
    {
      "inputs": [],
      "name": "spotPriceTwapInterval",
      "outputs": [
        {
          "internalType": "uint256",
          "name": "",
          "type": "uint256"
        }
      ],
      "stateMutability": "view",
      "type": "function"
    },
    {
      "inputs": [
        {
          "internalType": "enum IAmm.Dir",
          "name": "_dirOfQuote",
          "type": "uint8"
        },
        {
          "internalType": "uint256",
          "name": "_quoteAssetAmount",
          "type": "uint256"
        },
        {
          "internalType": "uint256",
          "name": "_baseAssetAmountLimit",
          "type": "uint256"
        },
        {
          "internalType": "bool",
          "name": "_canOverFluctuationLimit",
          "type": "bool"
        }
      ],
      "name": "swapInput",
      "outputs": [
        {
          "internalType": "uint256",
          "name": "",
          "type": "uint256"
        }
      ],
      "stateMutability": "nonpayable",
      "type": "function"
    },
    {
      "inputs": [
        {
          "internalType": "enum IAmm.Dir",
          "name": "_dirOfBase",
          "type": "uint8"
        },
        {
          "internalType": "uint256",
          "name": "_baseAssetAmount",
          "type": "uint256"
        },
        {
          "internalType": "uint256",
          "name": "_quoteAssetAmountLimit",
          "type": "uint256"
        }
      ],
      "name": "swapOutput",
      "outputs": [
        {
          "internalType": "uint256",
          "name": "",
          "type": "uint256"
        }
      ],
      "stateMutability": "nonpayable",
      "type": "function"
    },
    {
      "inputs": [
        {
          "internalType": "int256",
          "name": "",
          "type": "int256"
        }
      ],
      "name": "tickBitmap",
      "outputs": [
        {
          "internalType": "uint256",
          "name": "",
          "type": "uint256"
        }
      ],
      "stateMutability": "view",
      "type": "function"
    }
  ],
  "bytecode": "0x608060405234801561001057600080fd5b506123ec806100206000396000f3fe608060405234801561001057600080fd5b50600436106101da5760003560e01c80636560ca6c11610104578063e0037a6c116100a2578063f4decfc411610071578063f4decfc414610373578063f68cd81014610386578063fdf262b71461039d578063ffbf688e1461029c576101da565b8063e0037a6c14610358578063ed83d79c1461029c578063f1537e6914610360578063f1b5df8614610263576101da565b8063ab98de65116100de578063ab98de6514610326578063c2de442f14610339578063c6332d2e14610341578063dc76fabc1461029c576101da565b80636560ca6c146102f857806374d7c62b1461030b578063a2146ad114610313576101da565b80633dd03c451161017c57806355289e6c1161014b57806355289e6c146102bf57806358a4c3dc146102d257806359bf5d39146102da5780635f1ba1fd146102f0576101da565b80633dd03c4514610289578063468f02d21461029c57806352f1c663146102a457806353aad1d9146102b7576101da565b806327dcf607116101b857806327dcf6071461023d5780632f86e2dd1461025057806334953249146102635780633667a03814610276576101da565b8063066494a1146101df5780630a73067d146101f457806311a998791461021d575b600080fd5b6101f26101ed366004611ea3565b6103b2565b005b610207610202366004611e05565b6104d9565b6040516102149190611f3e565b60405180910390f35b61023061022b366004611ded565b6104e2565b6040516102149190611f49565b6101f261024b366004611e05565b6104f4565b6101f261025e366004611cdc565b6105ca565b610230610271366004611ded565b6106b7565b610230610284366004611d2c565b6106bf565b6101f2610297366004611cf8565b6106c8565b610230610719565b6102306102b2366004611d4b565b61071e565b610230610728565b6101f26102cd366004611d98565b61072e565b610230610c24565b6102e2610c2a565b604051610214929190611f66565b610230610c30565b6101f2610306366004611e26565b610c36565b610230610c9d565b610207610321366004611e05565b610ca3565b6101f2610334366004611e26565b610ccd565b610230610d2e565b610349610d34565b60405161021493929190612129565b610230610d40565b6101f261036e366004611e05565b610d46565b610230610381366004611e51565b610d61565b61038e610f3d565b60405161021493929190612111565b6103a5610f4c565b6040516102149190611f52565b8a158015906103c057508815155b80156103cb57508915155b80156103d657508715155b80156103ea57506001600160a01b03871615155b80156103fe57506001600160a01b03841615155b801561040957508515155b604051806040016040528060018152602001603160f81b8152509061044a5760405162461bcd60e51b81526004016104419190611f74565b60405180910390fd5b50610e10603255600061045c87610f5b565b604080516060810182528981526020810183905260019101819052603d98909855603e555050603f805460ff191690951790945550603680547fffffffffffffffffffffffff0000000000000000000000000000000000000000166001600160a01b03929092169190911790555050610e10603255505050505050565b60015b92915050565b60376020526000908152604090205481565b60008181526041602052604090206002015482116105245760405162461bcd60e51b81526004016104419061206c565b6000818152604160208181526040808420868552600481018352908420600301548585529290915280549192909161055d9084906122b0565b9091555050600081815260416020908152604080832085845260040190915290819020600701805460ff19166002179055517f3780ac63d1d6ff3b514bb7c5a0c64b40585342a1e9c854c9f4672ec44874983c906105be9083908590611f66565b60405180910390a15050565b60005b6001600160a01b0382166000908152604360205260409020548110156106b3576001600160a01b038216600090815260436020526040812080548390811061062557634e487b7160e01b600052603260045260246000fd5b9060005260206000209060020201600101549050600060436000856001600160a01b03166001600160a01b03168152602001908152602001600020838154811061067f57634e487b7160e01b600052603260045260246000fd5b906000526020600020906002020160000154905061069d82826104d9565b50505080806106ab90612308565b9150506105cd565b5050565b60005b919050565b60009392505050565b6001600160a01b039092166000908152604360209081526040808320815180830190925294815280820193845284546001818101875595845291909220915160029091029091019081559051910155565b600090565b6000949350505050565b603e5490565b8361074b5760405162461bcd60e51b815260040161044190611fc7565b60408051606081018252603d548152603e546020820152603f5460ff1615159181018290529061078d5760405162461bcd60e51b815260040161044190612035565b603f805460ff191690556000808760018111156107ba57634e487b7160e01b600052602160045260246000fd5b146107c65760006107c9565b60015b905060008060006107d8611254565b92509250925060006040518060c001604052808b8152602001600081526020016108058c88888888611264565b81526020016000815260200187600001518152602001876020015181525090505b805115610c1757610835611ca4565b6080820151815260a082015161084e90603790886112bb565b151560408301526020820181905261086590611418565b606082018190528151603854845161087e93919061181e565b60a084015260808381019182528401919091525160208301516108a0916118f0565b6020830152608081015182516108b591611903565b825260a081015160408301516108ca91611903565b604083015260a081015160608301516108e2916118f0565b60608084019190915281015160808301511415610bee57806040015115610be95760208082018051600090815260419092526040808320600101549151835282205461092d91611903565b604084015184519192506000916109439161190f565b905081811015610b885760208084015160009081526041909152604090206001015461096f90826118f0565b506020808401805160009081526041909252604080832060020154915183529091206001015461099f90836118f0565b505b8115610b375760036020808601516000908152604182526040808220858352600401909252206007015460ff1660038111156109ed57634e487b7160e01b600052602160045260246000fd5b1415610a325760208085015160009081526041825260408082208483526004019092522060060154610a20908390611903565b50610a2c8160016118f0565b50610b32565b60006020808601516000908152604182526040808220858352600401909252206007015460ff166003811115610a7857634e487b7160e01b600052602160045260246000fd5b1415610b325760208085015160009081526041825260408082208483526004019092522060060154821115610ad45760208085015160009081526041825260408082208483526004019092522060060154610a20908390611903565b60208085015160009081526041825260408082208483526004019092522060060154610b009083611903565b506020848101516000908152604182526040808220848352600401909252908120600701805460ff1916600317905591505b6109a1565b84516020860151610b47916118f0565b602086015260408501516060860151610b5f916118f0565b606086015260006040808701829052818752602086810151835260419052902060020155610be6565b602080840151600090815260419091526040902060010154610baa90836118f0565b506020808401805160009081526041909252604080832060030154825184529220600201919091555160a08501819052610be69060379061191b565b50505b610c11565b806060015182608001511015610c1157610c0b8260800151610f5b565b60a08301525b50610826565b5050505050505050505050565b603c5481565b60008091565b60325481565b6040805180820190915260018152603160f81b602082015281610c6c5760405162461bcd60e51b81526004016104419190611f74565b506000828152604160209081526040808320868452600401909152902060050154610c9790826118f0565b50505050565b60335481565b600082815260416020526040812060020154821115610cc4575060006104dc565b50600192915050565b6040805180820190915260018152603160f81b602082015281610d035760405162461bcd60e51b81526004016104419190611f74565b506000828152604160209081526040808320868452600401909152902060050154610c979082611903565b60345481565b603854603954603a5483565b603b5481565b603a8290556039819055610d5a828261190f565b6038555050565b60008615801590610d7157508515155b610d8d5760405162461bcd60e51b8152600401610441906120a3565b6000838152604160205260409020548690610da890826118f0565b50600084815260416020526040812060030154610dc69060016118f0565b9050604051806101000160405280876001811115610df457634e487b7160e01b600052602160045260246000fd5b81526020018581526020018881526020018981526020018a8152602001610e24868b61195390919063ffffffff16565b815260208082018b905260006040928301819052888152604182528281208582526004019091522081518154829060ff191660018381811115610e7757634e487b7160e01b600052602160045260246000fd5b02179055506020820151816001015560408201518160020155606082015181600301556080820151816004015560a0820151816005015560c0820151816006015560e08201518160070160006101000a81548160ff02191690836003811115610ef057634e487b7160e01b600052602160045260246000fd5b02179055509050507fa292ee2a7c102b1a55f49ecf3610aae64f758e79580a629393d32e08f4125e248582604051610f29929190611f66565b60405180910390a198975050505050505050565b603d54603e54603f5460ff1683565b6036546001600160a01b031681565b60006401000276a38210158015610f85575073fffd8963efd1fc6a506488495d951d5263988d2682105b610fa15760405162461bcd60e51b8152600401610441906120da565b602082901b6fffffffffffffffffffffffffffffffff811160071b81811c67ffffffffffffffff811160061b90811c63ffffffff811160051b90811c61ffff811160041b90811c60ff8111600390811b91821c600f811160021b90811c918211600190811b92831c979088119617909417909217179091171717608081106110385761102e607f826122b0565b83901c9150611049565b61104381607f6122b0565b83901b91505b60006040611058608084612271565b901b9050828302607f1c92508260801c80603f1b8217915083811c935050828302607f1c92508260801c80603e1b8217915083811c935050828302607f1c92508260801c80603d1b8217915083811c935050828302607f1c92508260801c80603c1b8217915083811c935050828302607f1c92508260801c80603b1b8217915083811c935050828302607f1c92508260801c80603a1b8217915083811c935050828302607f1c92508260801c8060391b8217915083811c935050828302607f1c92508260801c8060381b8217915083811c935050828302607f1c92508260801c8060371b8217915083811c935050828302607f1c92508260801c8060361b8217915083811c935050828302607f1c92508260801c8060351b8217915083811c935050828302607f1c92508260801c8060341b8217915083811c935050828302607f1c92508260801c8060331b8217915083811c935050828302607f1c92508260801c8060321b8217915050600081693627a301d71055774c856111db91906121cf565b9050600060806111fb6f028f6481ab7f045a5af012a19d003aaa84612271565b901d90506000608061121d846fdb2df09e81959a81455e260799a0632f61213f565b901d9050808214611245578861123282611418565b111561123e5781611240565b805b611247565b815b9998505050505050505050565b603854603a546039549192909190565b600084156112915761128a61128361127c85896118f0565b8690611953565b8390611903565b90506112b2565b6112af826112a96112a2868a611903565b8790611953565b90611903565b90505b95945050505050565b6000808381811280156112cd57508415155b156112e057806112dc816122ea565b9150505b831561136b576000806112f28361195f565b90925090506000600180831b9061130990826122b0565b611313919061217e565b600084815260208b9052604090205481168015159650909150856113405761133b8386612271565b611360565b61134981611979565b6113569060ff16846122b0565b6113609086612271565b96505050505061140f565b60008061138161137c84600161213f565b61195f565b90925090506000611395600180841b6122b0565b600084815260208b9052604090205490199081168015159650909150856113dc576113c2836000196122b0565b6113cd86600161213f565b6113d7919061213f565b611408565b826113e682611a76565b60ff166113f391906122b0565b6113fe86600161213f565b611408919061213f565b9650505050505b50935093915050565b600080600083126114295782611432565b6114328361234b565b9050611441620d89e71961234b565b8111156114605760405162461bcd60e51b815260040161044190611ffe565b60006001821661148157700100000000000000000000000000000000611493565b6ffffcb933bd6fad37aa2d162d1a5940015b70ffffffffffffffffffffffffffffffffff16905060028216156114d25760806114cd826ffff97272373d413259a46990580e213a612252565b901c90505b60048216156114fc5760806114f7826ffff2e50f5f656932ef12357cf3c7fdcc612252565b901c90505b6008821615611526576080611521826fffe5caca7e10e4e61c3624eaa0941cd0612252565b901c90505b601082161561155057608061154b826fffcb9843d60f6159c9db58835c926644612252565b901c90505b602082161561157a576080611575826fff973b41fa98c081472e6896dfb254c0612252565b901c90505b60408216156115a457608061159f826fff2ea16466c96a3843ec78b326b52861612252565b901c90505b60808216156115ce5760806115c9826ffe5dee046a99a2a811c461f1969c3053612252565b901c90505b6101008216156115f95760806115f4826ffcbe86c7900a88aedcffc83b479aa3a4612252565b901c90505b61020082161561162457608061161f826ff987a7253ac413176f2b074cf7815e54612252565b901c90505b61040082161561164f57608061164a826ff3392b0822b70005940c7a398e4b70f3612252565b901c90505b61080082161561167a576080611675826fe7159475a2c29b7443b29c7fa6e889d9612252565b901c90505b6110008216156116a55760806116a0826fd097f3bdfd2022b8845ad8f792aa5825612252565b901c90505b6120008216156116d05760806116cb826fa9f746462d870fdf8a65dc1f90e061e5612252565b901c90505b6140008216156116fb5760806116f6826f70d869a156d2a1b890bb3df62baf32f7612252565b901c90505b618000821615611726576080611721826f31be135f97d08fd981231505542fcfa6612252565b901c90505b6201000082161561175257608061174d826f09aa508b5b7a84e1c677de54f3e99bc9612252565b901c90505b6202000082161561177d576080611778826e5d6af8dedb81196699c329225ee604612252565b901c90505b620400008216156117a75760806117a2826d2216e584f5fa1ea926041bedfe98612252565b901c90505b620800008216156117cf5760806117ca826b048a170391f7dc42444e8fa2612252565b901c90505b60008413156117e7576117e4816000196121bb565b90505b6117f664010000000082612337565b15611802576001611805565b60005b6118169060ff16602083901c61217e565b949350505050565b60008080858710801590829061185e57611839888a89611baa565b905080861061184a57879450611859565b61185689888489611bd3565b94505b61188e565b600061186b898b8a611baa565b905080871061187c5788955061188c565b6118898a8985158a611bd3565b95505b505b87851482156118bf57806118a257866118a4565b815b9450806118b25760016118b5565b60005b60ff1693506118e3565b806118ca57866118cc565b815b9450806118da5760016118dd565b60005b60ff1693505b5050509450945094915050565b60006118fc828461217e565b9392505050565b60006118fc82846122b0565b60006118fc8284612252565b801561192657600080fd5b6000806119328361195f565b6000918252602095909552604090208054600190951b909418909355505050565b60006118fc82846121bb565b600881901d600061197261010084612323565b9050915091565b600080821161198757600080fd5b70010000000000000000000000000000000082106119b257608091821c916119af9082612196565b90505b6801000000000000000082106119d557604091821c916119d29082612196565b90505b64010000000082106119f457602091821c916119f19082612196565b90505b620100008210611a1157601091821c91611a0e9082612196565b90505b6101008210611a2d57600891821c91611a2a9082612196565b90505b60108210611a4857600491821c91611a459082612196565b90505b60048210611a6357600291821c91611a609082612196565b90505b600282106106ba576104dc600182612196565b6000808211611a8457600080fd5b5060ff6fffffffffffffffffffffffffffffffff821615611ab157611aaa6080826122c7565b9050611ab9565b608082901c91505b67ffffffffffffffff821615611adb57611ad46040826122c7565b9050611ae3565b604082901c91505b63ffffffff821615611b0157611afa6020826122c7565b9050611b09565b602082901c91505b61ffff821615611b2557611b1e6010826122c7565b9050611b2d565b601082901c91505b60ff821615611b4857611b416008826122c7565b9050611b50565b600882901c91505b600f821615611b6b57611b646004826122c7565b9050611b73565b600482901c91505b6003821615611b8e57611b876002826122c7565b9050611b96565b600282901c91505b60018216156106ba576104dc6001826122c7565b6000611816611bce83611bc8611bbf87611c1d565b6112a989611c1d565b9061190f565b611c69565b60008215611c0857611c01611bfa611beb8685611953565b611bf488611c1d565b906118f0565b6002611c6c565b9050611816565b6112b2611bfa611c188685611953565b6112a9885b60006402540be400815b81611c4085611c36848061190f565b611bce91906122b0565b106118fc57611c6281611bf46002611c5c836112a98a82611953565b90611953565b9050611c27565b90565b60008260015b8361ffff16811015611c9c57611c88828661190f565b915080611c9481612308565b915050611c72565b509392505050565b6040518060c0016040528060008152602001600081526020016000151581526020016000815260200160008152602001600081525090565b600060208284031215611ced578081fd5b81356118fc81612391565b600080600060608486031215611d0c578182fd5b8335611d1781612391565b95602085013595506040909401359392505050565b600080600060608486031215611d40578283fd5b8335611d17816123a9565b60008060008060808587031215611d60578081fd5b8435611d6b816123a9565b9350602085013592506040850135915060608501358015158114611d8d578182fd5b939692955090935050565b600080600080600060a08688031215611daf578081fd5b8535611dba816123a9565b94506020860135935060408601359250606086013591506080860135611ddf81612391565b809150509295509295909350565b600060208284031215611dfe578081fd5b5035919050565b60008060408385031215611e17578182fd5b50508035926020909101359150565b600080600060608486031215611e3a578283fd5b505081359360208301359350604090920135919050565b60008060008060008060c08789031215611e69578081fd5b8635955060208701359450604087013593506060870135611e89816123a9565b9598949750929560808101359460a0909101359350915050565b6000806000806000806000806000806000806101808d8f031215611ec557898afd5b8c359b5060208d01359a5060408d0135995060608d0135985060808d0135975060a08d0135611ef381612391565b965060c08d0135955060e08d013594506101008d0135611f1281612391565b809450506101208d013592506101408d013591506101608d013590509295989b509295989b509295989b565b901515815260200190565b90815260200190565b6001600160a01b0391909116815260200190565b918252602082015260400190565b6000602080835283518082850152825b81811015611fa057858101830151858201604001528201611f84565b81811115611fb15783604083870101525b50601f01601f1916929092016040019392505050565b6020808252600e908201527f496e76616c696420616d6f756e74000000000000000000000000000000000000604082015260600190565b60208082526001908201527f5400000000000000000000000000000000000000000000000000000000000000604082015260600190565b6020808252600d908201527f416d6d206973206c6f636b656400000000000000000000000000000000000000604082015260600190565b6020808252601b908201527f52657175697265206e6f742066696c6c6564206f70656e207965740000000000604082015260600190565b60208082526014908201527f5265717569726520646966666572656e63652030000000000000000000000000604082015260600190565b60208082526001908201527f5200000000000000000000000000000000000000000000000000000000000000604082015260600190565b92835260208301919091521515604082015260600190565b9283526020830191909152604082015260600190565b6000808212826001600160ff1b030384138115161561216057612160612365565b82600160ff1b03841281161561217857612178612365565b50500190565b6000821982111561219157612191612365565b500190565b600060ff821660ff84168060ff038211156121b3576121b3612365565b019392505050565b6000826121ca576121ca61237b565b500490565b60006001600160ff1b03818413828413858304851182821616156121f5576121f5612365565b600160ff1b8487128682058812818416161561221357612213612365565b85871292508782058712848416161561222e5761222e612365565b8785058712818416161561224457612244612365565b505050929093029392505050565b600081600019048311821515161561226c5761226c612365565b500290565b600080831283600160ff1b0183128115161561228f5761228f612365565b836001600160ff1b030183138116156122aa576122aa612365565b50500390565b6000828210156122c2576122c2612365565b500390565b600060ff821660ff8416808210156122e1576122e1612365565b90039392505050565b6000600160ff1b82141561230057612300612365565b506000190190565b600060001982141561231c5761231c612365565b5060010190565b6000826123325761233261237b565b500790565b6000826123465761234661237b565b500690565b6000600160ff1b82141561236157612361612365565b0390565b634e487b7160e01b600052601160045260246000fd5b634e487b7160e01b600052601260045260246000fd5b6001600160a01b03811681146123a657600080fd5b50565b600281106123a657600080fdfea26469706673582212201fddba06aa8cbf87613410c7d6d70b583780dbaf02dd53dfc0cf3ba4d7d07fec64736f6c63430008000033",
  "linkReferences": {},
  "deployedLinkReferences": {}
}