{
  "_format": "hh-sol-artifact-1",
  "contractName": "Amm",
  "sourceName": "contracts/protocol/position/Amm.sol",
  "abi": [
    {
      "anonymous": false,
      "inputs": [
        {
          "indexed": false,
          "internalType": "int256",
          "name": "tick",
          "type": "int256"
        },
        {
          "indexed": false,
          "internalType": "uint256",
          "name": "index",
          "type": "uint256"
        }
      ],
      "name": "CancelOrder",
      "type": "event"
    },
    {
      "anonymous": false,
      "inputs": [
        {
          "indexed": false,
          "internalType": "uint256",
          "name": "rate",
          "type": "uint256"
        },
        {
          "indexed": false,
          "internalType": "uint256",
          "name": "underlyingPrice",
          "type": "uint256"
        }
      ],
      "name": "FundingRateUpdated",
      "type": "event"
    },
    {
      "anonymous": false,
      "inputs": [
        {
          "indexed": false,
          "internalType": "int256",
          "name": "tick",
          "type": "int256"
        },
        {
          "indexed": false,
          "internalType": "uint256",
          "name": "index",
          "type": "uint256"
        }
      ],
      "name": "OpenLimitOrder",
      "type": "event"
    },
    {
      "anonymous": false,
      "inputs": [
        {
          "indexed": false,
          "internalType": "int256",
          "name": "tick",
          "type": "int256"
        },
        {
          "indexed": false,
          "internalType": "uint256",
          "name": "index",
          "type": "uint256"
        }
      ],
      "name": "OpenMarketOrder",
      "type": "event"
    },
    {
      "anonymous": false,
      "inputs": [
        {
          "indexed": false,
          "internalType": "enum IAmm.Dir",
          "name": "dir",
          "type": "uint8"
        },
        {
          "indexed": false,
          "internalType": "uint256",
          "name": "quoteAssetAmount",
          "type": "uint256"
        },
        {
          "indexed": false,
          "internalType": "uint256",
          "name": "baseAssetAmount",
          "type": "uint256"
        }
      ],
      "name": "SwapInput",
      "type": "event"
    },
    {
      "anonymous": false,
      "inputs": [
        {
          "indexed": false,
          "internalType": "enum IAmm.Dir",
          "name": "dir",
          "type": "uint8"
        },
        {
          "indexed": false,
          "internalType": "uint256",
          "name": "quoteAssetAmount",
          "type": "uint256"
        },
        {
          "indexed": false,
          "internalType": "uint256",
          "name": "baseAssetAmount",
          "type": "uint256"
        }
      ],
      "name": "SwapOutput",
      "type": "event"
    },
    {
      "inputs": [
        {
          "internalType": "uint256",
          "name": "index",
          "type": "uint256"
        },
        {
          "internalType": "int256",
          "name": "tick",
          "type": "int256"
        },
        {
          "internalType": "uint256",
          "name": "_amountAdded",
          "type": "uint256"
        }
      ],
      "name": "addMargin",
      "outputs": [],
      "stateMutability": "nonpayable",
      "type": "function"
    },
    {
      "inputs": [
        {
          "internalType": "address",
          "name": "_trader",
          "type": "address"
        },
        {
          "internalType": "int256",
          "name": "tick",
          "type": "int256"
        },
        {
          "internalType": "uint256",
          "name": "index",
          "type": "uint256"
        }
      ],
      "name": "addPositionMap",
      "outputs": [],
      "stateMutability": "nonpayable",
      "type": "function"
    },
    {
      "inputs": [],
      "name": "ammState",
      "outputs": [
        {
          "internalType": "uint256",
          "name": "price",
          "type": "uint256"
        },
        {
          "internalType": "int256",
          "name": "tick",
          "type": "int256"
        },
        {
          "internalType": "bool",
          "name": "unlocked",
          "type": "bool"
        }
      ],
      "stateMutability": "view",
      "type": "function"
    },
    {
      "inputs": [
        {
          "internalType": "uint256",
          "name": "_index",
          "type": "uint256"
        },
        {
          "internalType": "int256",
          "name": "_tick",
          "type": "int256"
        }
      ],
      "name": "cancelOrder",
      "outputs": [],
      "stateMutability": "nonpayable",
      "type": "function"
    },
    {
      "inputs": [
        {
          "internalType": "address",
          "name": "_trader",
          "type": "address"
        }
      ],
      "name": "closePosition",
      "outputs": [],
      "stateMutability": "nonpayable",
      "type": "function"
    },
    {
      "inputs": [],
      "name": "fundingBufferPeriod",
      "outputs": [
        {
          "internalType": "uint256",
          "name": "",
          "type": "uint256"
        }
      ],
      "stateMutability": "view",
      "type": "function"
    },
    {
      "inputs": [],
      "name": "fundingPeriod",
      "outputs": [
        {
          "internalType": "uint256",
          "name": "",
          "type": "uint256"
        }
      ],
      "stateMutability": "view",
      "type": "function"
    },
    {
      "inputs": [],
      "name": "getCurrentTick",
      "outputs": [
        {
          "internalType": "int256",
          "name": "",
          "type": "int256"
        }
      ],
      "stateMutability": "nonpayable",
      "type": "function"
    },
    {
      "inputs": [
        {
          "internalType": "int256",
          "name": "_tick",
          "type": "int256"
        },
        {
          "internalType": "uint256",
          "name": "_index",
          "type": "uint256"
        }
      ],
      "name": "getIsOrderExecuted",
      "outputs": [
        {
          "internalType": "bool",
          "name": "",
          "type": "bool"
        }
      ],
      "stateMutability": "view",
      "type": "function"
    },
    {
      "inputs": [
        {
          "internalType": "int256",
          "name": "_tick",
          "type": "int256"
        },
        {
          "internalType": "uint256",
          "name": "_index",
          "type": "uint256"
        }
      ],
      "name": "getIsWaitingOrder",
      "outputs": [
        {
          "internalType": "bool",
          "name": "",
          "type": "bool"
        }
      ],
      "stateMutability": "view",
      "type": "function"
    },
    {
      "inputs": [
        {
          "internalType": "address",
          "name": "_trader",
          "type": "address"
        },
        {
          "internalType": "int256",
          "name": "tick",
          "type": "int256"
        },
        {
          "internalType": "uint256",
          "name": "index",
          "type": "uint256"
        }
      ],
      "name": "getOrder",
      "outputs": [
        {
          "components": [
            {
              "internalType": "enum IAmm.Side",
              "name": "side",
              "type": "uint8"
            },
            {
              "internalType": "uint256",
              "name": "leverage",
              "type": "uint256"
            },
            {
              "internalType": "uint256",
              "name": "limitPrice",
              "type": "uint256"
            },
            {
              "internalType": "uint256",
              "name": "amountAssetQuote",
              "type": "uint256"
            },
            {
              "internalType": "uint256",
              "name": "amountAssetBase",
              "type": "uint256"
            },
            {
              "internalType": "uint256",
              "name": "margin",
              "type": "uint256"
            },
            {
              "internalType": "uint256",
              "name": "orderLiquidityRemain",
              "type": "uint256"
            },
            {
              "internalType": "enum IAmm.Status",
              "name": "status",
              "type": "uint8"
            }
          ],
          "internalType": "struct IAmm.Order",
          "name": "order",
          "type": "tuple"
        }
      ],
      "stateMutability": "view",
      "type": "function"
    },
    {
      "inputs": [],
      "name": "getReserve",
      "outputs": [
        {
          "internalType": "uint256",
          "name": "",
          "type": "uint256"
        },
        {
          "internalType": "uint256",
          "name": "",
          "type": "uint256"
        }
      ],
      "stateMutability": "view",
      "type": "function"
    },
    {
      "inputs": [],
      "name": "getSpotPrice",
      "outputs": [
        {
          "internalType": "uint256",
          "name": "",
          "type": "uint256"
        }
      ],
      "stateMutability": "view",
      "type": "function"
    },
    {
      "inputs": [],
      "name": "getTotalPositionSize",
      "outputs": [
        {
          "internalType": "uint256",
          "name": "",
          "type": "uint256"
        }
      ],
      "stateMutability": "view",
      "type": "function"
    },
    {
      "inputs": [
        {
          "internalType": "uint256",
          "name": "_intervalInSeconds",
          "type": "uint256"
        }
      ],
      "name": "getTwapPrice",
      "outputs": [
        {
          "internalType": "uint256",
          "name": "",
          "type": "uint256"
        }
      ],
      "stateMutability": "view",
      "type": "function"
    },
    {
      "inputs": [],
      "name": "getUnderlyingPrice",
      "outputs": [
        {
          "internalType": "uint256",
          "name": "",
          "type": "uint256"
        }
      ],
      "stateMutability": "view",
      "type": "function"
    },
    {
      "inputs": [
        {
          "internalType": "uint256",
          "name": "_intervalInSeconds",
          "type": "uint256"
        }
      ],
      "name": "getUnderlyingTwapPrice",
      "outputs": [
        {
          "internalType": "uint256",
          "name": "",
          "type": "uint256"
        }
      ],
      "stateMutability": "view",
      "type": "function"
    },
    {
      "inputs": [
        {
          "internalType": "uint256",
          "name": "_quoteAssetReserve",
          "type": "uint256"
        },
        {
          "internalType": "uint256",
          "name": "_baseAssetReserve",
          "type": "uint256"
        },
        {
          "internalType": "uint256",
          "name": "sqrtStartPrice",
          "type": "uint256"
        }
      ],
      "name": "initialize",
      "outputs": [],
      "stateMutability": "nonpayable",
      "type": "function"
    },
    {
      "inputs": [],
      "name": "liquidityDetail",
      "outputs": [
        {
          "internalType": "uint256",
          "name": "liquidity",
          "type": "uint256"
        },
        {
          "internalType": "uint256",
          "name": "baseReserveAmount",
          "type": "uint256"
        },
        {
          "internalType": "uint256",
          "name": "quoteReserveAmount",
          "type": "uint256"
        }
      ],
      "stateMutability": "view",
      "type": "function"
    },
    {
      "inputs": [],
      "name": "nextFundingTime",
      "outputs": [
        {
          "internalType": "uint256",
          "name": "",
          "type": "uint256"
        }
      ],
      "stateMutability": "view",
      "type": "function"
    },
    {
      "inputs": [
        {
          "internalType": "uint256",
          "name": "_amountAssetBase",
          "type": "uint256"
        },
        {
          "internalType": "uint256",
          "name": "_amountAssetQuote",
          "type": "uint256"
        },
        {
          "internalType": "uint256",
          "name": "_limitPrice",
          "type": "uint256"
        },
        {
          "internalType": "enum IAmm.Side",
          "name": "_side",
          "type": "uint8"
        },
        {
          "internalType": "int256",
          "name": "_tick",
          "type": "int256"
        },
        {
          "internalType": "uint256",
          "name": "_leverage",
          "type": "uint256"
        }
      ],
      "name": "openLimit",
      "outputs": [
        {
          "internalType": "uint256",
          "name": "",
          "type": "uint256"
        }
      ],
      "stateMutability": "nonpayable",
      "type": "function"
    },
    {
      "inputs": [
        {
          "internalType": "enum IAmm.Side",
          "name": "side",
          "type": "uint8"
        },
        {
          "internalType": "uint256",
          "name": "quoteAmount",
          "type": "uint256"
        },
        {
          "internalType": "uint256",
          "name": "leverage",
          "type": "uint256"
        },
        {
          "internalType": "uint256",
          "name": "margin",
          "type": "uint256"
        },
        {
          "internalType": "address",
          "name": "_trader",
          "type": "address"
        }
      ],
      "name": "openMarket",
      "outputs": [],
      "stateMutability": "nonpayable",
      "type": "function"
    },
    {
      "inputs": [],
      "name": "priceFeedKey",
      "outputs": [
        {
          "internalType": "bytes32",
          "name": "",
          "type": "bytes32"
        }
      ],
      "stateMutability": "view",
      "type": "function"
    },
    {
      "inputs": [
        {
          "internalType": "address",
          "name": "_trader",
          "type": "address"
        }
      ],
      "name": "queryPositions",
      "outputs": [
        {
          "components": [
            {
              "internalType": "uint256",
              "name": "index",
              "type": "uint256"
            },
            {
              "internalType": "int256",
              "name": "tick",
              "type": "int256"
            }
          ],
          "internalType": "struct IAmm.Position[]",
          "name": "positions",
          "type": "tuple[]"
        }
      ],
      "stateMutability": "view",
      "type": "function"
    },
    {
      "inputs": [],
      "name": "quoteAsset",
      "outputs": [
        {
          "internalType": "contract IERC20",
          "name": "",
          "type": "address"
        }
      ],
      "stateMutability": "view",
      "type": "function"
    },
    {
      "inputs": [
        {
          "internalType": "uint256",
          "name": "index",
          "type": "uint256"
        },
        {
          "internalType": "int256",
          "name": "tick",
          "type": "int256"
        },
        {
          "internalType": "uint256",
          "name": "_amountRemoved",
          "type": "uint256"
        }
      ],
      "name": "removeMargin",
      "outputs": [],
      "stateMutability": "nonpayable",
      "type": "function"
    },
    {
      "inputs": [
        {
          "internalType": "uint256",
          "name": "quoteReserveAmount",
          "type": "uint256"
        },
        {
          "internalType": "uint256",
          "name": "baseReserveAmount",
          "type": "uint256"
        }
      ],
      "name": "setLiquidityDetail",
      "outputs": [],
      "stateMutability": "nonpayable",
      "type": "function"
    },
    {
      "inputs": [],
      "name": "settleFunding",
      "outputs": [
        {
          "internalType": "uint256",
          "name": "",
          "type": "uint256"
        }
      ],
      "stateMutability": "view",
      "type": "function"
    },
    {
      "inputs": [],
      "name": "spotPriceTwapInterval",
      "outputs": [
        {
          "internalType": "uint256",
          "name": "",
          "type": "uint256"
        }
      ],
      "stateMutability": "view",
      "type": "function"
    },
    {
      "inputs": [
        {
          "internalType": "enum IAmm.Dir",
          "name": "_dirOfQuote",
          "type": "uint8"
        },
        {
          "internalType": "uint256",
          "name": "_quoteAssetAmount",
          "type": "uint256"
        },
        {
          "internalType": "uint256",
          "name": "_baseAssetAmountLimit",
          "type": "uint256"
        },
        {
          "internalType": "bool",
          "name": "_canOverFluctuationLimit",
          "type": "bool"
        }
      ],
      "name": "swapInput",
      "outputs": [
        {
          "internalType": "uint256",
          "name": "",
          "type": "uint256"
        }
      ],
      "stateMutability": "nonpayable",
      "type": "function"
    },
    {
      "inputs": [
        {
          "internalType": "enum IAmm.Dir",
          "name": "_dirOfBase",
          "type": "uint8"
        },
        {
          "internalType": "uint256",
          "name": "_baseAssetAmount",
          "type": "uint256"
        },
        {
          "internalType": "uint256",
          "name": "_quoteAssetAmountLimit",
          "type": "uint256"
        }
      ],
      "name": "swapOutput",
      "outputs": [
        {
          "internalType": "uint256",
          "name": "",
          "type": "uint256"
        }
      ],
      "stateMutability": "nonpayable",
      "type": "function"
    },
    {
      "inputs": [],
      "name": "testTickInitialize",
      "outputs": [
        {
          "internalType": "int256",
          "name": "",
          "type": "int256"
        }
      ],
      "stateMutability": "view",
      "type": "function"
    },
    {
      "inputs": [
        {
          "internalType": "int256",
          "name": "",
          "type": "int256"
        }
      ],
      "name": "tickBitmap",
      "outputs": [
        {
          "internalType": "uint256",
          "name": "",
          "type": "uint256"
        }
      ],
      "stateMutability": "view",
      "type": "function"
    }
  ],
  "bytecode": "0x608060405234801561001057600080fd5b506126e2806100206000396000f3fe608060405234801561001057600080fd5b506004361061020b5760003560e01c806380d859111161012a578063dc76fabc116100bd578063f1b5df861161008c578063f68cd81011610071578063f68cd810146103f7578063fdf262b71461040e578063ffbf688e146102ba5761020b565b8063f1b5df8614610281578063f4decfc4146103e45761020b565b8063dc76fabc146102ba578063e0037a6c146103c9578063ed83d79c146102ba578063f1537e69146103d15761020b565b8063b8bcf35a116100f9578063b8bcf35a1461038a578063bb56d02e146102d5578063c2de442f146103aa578063c6332d2e146103b25761020b565b806380d8591114610331578063a2146ad114610344578063ab98de6514610357578063b25b93a01461036a5761020b565b806352f1c663116101a257806359bf5d391161017157806359bf5d39146102f85780635f1ba1fd1461030e5780636560ca6c1461031657806374d7c62b146103295761020b565b806352f1c663146102c257806353aad1d9146102d557806355289e6c146102dd57806358a4c3dc146102f05761020b565b806334953249116101de57806334953249146102815780633667a038146102945780633dd03c45146102a7578063468f02d2146102ba5761020b565b80630a73067d1461021057806311a998791461023957806327dcf607146102595780632f86e2dd1461026e575b600080fd5b61022361021e3660046120cf565b610423565b60405161023091906121bc565b60405180910390f35b61024c6102473660046120b7565b61042c565b60405161023091906121c7565b61026c6102673660046120cf565b61043e565b005b61026c61027c366004611fae565b61051d565b61024c61028f3660046120b7565b61060a565b61024c6102a2366004611ffa565b610612565b61026c6102b5366004611fc8565b61061b565b61024c61066c565b61024c6102d0366004612019565b610671565b61024c61067b565b61026c6102eb366004612066565b610681565b61024c610b77565b610300610b7d565b6040516102309291906121e4565b61024c610b83565b61026c6103243660046120f0565b610b89565b61024c610bf0565b61026c61033f3660046120f0565b610bf6565b6102236103523660046120cf565b610cce565b61026c6103653660046120f0565b610cf8565b61037d610378366004611fae565b610d59565b604051610230919061216d565b61039d610398366004611fc8565b610de2565b604051610230919061238f565b61024c610eec565b6103ba610ef2565b60405161023093929190612421565b61024c610efe565b61026c6103df3660046120cf565b610f04565b61024c6103f236600461211b565b610f1f565b6103ff6110fb565b60405161023093929190612409565b61041661110a565b60405161023091906121d0565b60015b92915050565b60376020526000908152604090205481565b60008181526041602052604090206002015482116104775760405162461bcd60e51b815260040161046e906122ea565b60405180910390fd5b600081815260416020818152604080842086855260048101835290842060030154858552929091528054919290916104b09084906125a8565b9091555050600081815260416020908152604080832085845260040190915290819020600701805460ff19166002179055517f3780ac63d1d6ff3b514bb7c5a0c64b40585342a1e9c854c9f4672ec44874983c9061051190839085906121e4565b60405180910390a15050565b60005b6001600160a01b038216600090815260436020526040902054811015610606576001600160a01b038216600090815260436020526040812080548390811061057857634e487b7160e01b600052603260045260246000fd5b9060005260206000209060020201600101549050600060436000856001600160a01b03166001600160a01b0316815260200190815260200160002083815481106105d257634e487b7160e01b600052603260045260246000fd5b90600052602060002090600202016000015490506105f08282610423565b50505080806105fe90612600565b915050610520565b5050565b60005b919050565b60009392505050565b6001600160a01b039092166000908152604360209081526040808320815180830190925294815280820193845284546001818101875595845291909220915160029091029091019081559051910155565b600090565b6000949350505050565b603e5490565b8361069e5760405162461bcd60e51b815260040161046e90612245565b60408051606081018252603d548152603e546020820152603f5460ff161515918101829052906106e05760405162461bcd60e51b815260040161046e906122b3565b603f805460ff1916905560008087600181111561070d57634e487b7160e01b600052602160045260246000fd5b1461071957600061071c565b60015b9050600080600061072b611119565b92509250925060006040518060c001604052808b8152602001600081526020016107588c88888888611129565b81526020016000815260200187600001518152602001876020015181525090505b805115610b6a57610788611efb565b6080820151815260a08201516107a19060379088611180565b15156040830152602082018190526107b8906112dd565b60608201819052815160385484516107d19391906116e3565b60a084015260808381019182528401919091525160208301516107f3916117b5565b602083015260808101518251610808916117c8565b825260a0810151604083015161081d916117c8565b604083015260a08101516060830151610835916117b5565b60608084019190915281015160808301511415610b4157806040015115610b3c57602080820180516000908152604190925260408083206001015491518352822054610880916117c8565b60408401518451919250600091610896916117d4565b905081811015610adb576020808401516000908152604190915260409020600101546108c290826117b5565b50602080840180516000908152604190925260408083206002015491518352909120600101546108f290836117b5565b505b8115610a8a5760036020808601516000908152604182526040808220858352600401909252206007015460ff16600381111561094057634e487b7160e01b600052602160045260246000fd5b141561098557602080850151600090815260418252604080822084835260040190925220600601546109739083906117c8565b5061097f8160016117b5565b50610a85565b60006020808601516000908152604182526040808220858352600401909252206007015460ff1660038111156109cb57634e487b7160e01b600052602160045260246000fd5b1415610a855760208085015160009081526041825260408082208483526004019092522060060154821115610a2757602080850151600090815260418252604080822084835260040190925220600601546109739083906117c8565b60208085015160009081526041825260408082208483526004019092522060060154610a5390836117c8565b506020848101516000908152604182526040808220848352600401909252908120600701805460ff1916600317905591505b6108f4565b84516020860151610a9a916117b5565b602086015260408501516060860151610ab2916117b5565b606086015260006040808701829052818752602086810151835260419052902060020155610b39565b602080840151600090815260419091526040902060010154610afd90836117b5565b506020808401805160009081526041909252604080832060030154825184529220600201919091555160a08501819052610b39906037906117e0565b50505b610b64565b806060015182608001511015610b6457610b5e8260800151611818565b60a08301525b50610779565b5050505050505050505050565b603c5481565b60008091565b60325481565b6040805180820190915260018152603160f81b602082015281610bbf5760405162461bcd60e51b815260040161046e91906121f2565b506000828152604160209081526040808320868452600401909152902060050154610bea90826117b5565b50505050565b60335481565b8215801590610c0457508115155b8015610c0f57508015155b604051806040016040528060018152602001603160f81b81525090610c475760405162461bcd60e51b815260040161046e91906121f2565b50610e106032556000610c5982611818565b9050610c996040518060400160405280601b81526020017f53656e6465722062616c616e636520697320257320746f6b656e730000000000815250611b11565b604080516060810182528381526020810183905260019101819052603d92909255603e55603f805460ff191690911790555050565b600082815260416020526040812060020154821115610cef57506000610426565b50600192915050565b6040805180820190915260018152603160f81b602082015281610d2e5760405162461bcd60e51b815260040161046e91906121f2565b506000828152604160209081526040808320868452600401909152902060050154610bea90826117c8565b6001600160a01b0381166000908152604360209081526040808320805482518185028101850190935280835260609492939192909184015b82821015610dd757838290600052602060002090600202016040518060400160405290816000820154815260200160018201548152505081526020019060010190610d91565b505050509050919050565b610dea611f33565b600083815260416020908152604080832085845260040190915290819020815161010081019092528054829060ff166001811115610e3857634e487b7160e01b600052602160045260246000fd5b6001811115610e5757634e487b7160e01b600052602160045260246000fd5b81526001820154602082015260028201546040820152600380830154606083015260048301546080830152600583015460a0830152600683015460c0830152600783015460e09092019160ff1690811115610ec257634e487b7160e01b600052602160045260246000fd5b6003811115610ee157634e487b7160e01b600052602160045260246000fd5b905250949350505050565b60345481565b603854603954603a5483565b603b5481565b603a8290556039819055610f1882826117d4565b6038555050565b60008615801590610f2f57508515155b610f4b5760405162461bcd60e51b815260040161046e90612321565b6000838152604160205260409020548690610f6690826117b5565b50600084815260416020526040812060030154610f849060016117b5565b9050604051806101000160405280876001811115610fb257634e487b7160e01b600052602160045260246000fd5b81526020018581526020018881526020018981526020018a8152602001610fe2868b611b8590919063ffffffff16565b815260208082018b905260006040928301819052888152604182528281208582526004019091522081518154829060ff19166001838181111561103557634e487b7160e01b600052602160045260246000fd5b02179055506020820151816001015560408201518160020155606082015181600301556080820151816004015560a0820151816005015560c0820151816006015560e08201518160070160006101000a81548160ff021916908360038111156110ae57634e487b7160e01b600052602160045260246000fd5b02179055509050507fa292ee2a7c102b1a55f49ecf3610aae64f758e79580a629393d32e08f4125e2485826040516110e79291906121e4565b60405180910390a198975050505050505050565b603d54603e54603f5460ff1683565b6036546001600160a01b031681565b603854603a546039549192909190565b600084156111565761114f61114861114185896117b5565b8690611b85565b83906117c8565b9050611177565b6111748261116e611167868a6117c8565b8790611b85565b906117c8565b90505b95945050505050565b60008083818112801561119257508415155b156111a557806111a1816125e2565b9150505b8315611230576000806111b783611b91565b90925090506000600180831b906111ce90826125a8565b6111d89190612476565b600084815260208b905260409020548116801515965090915085611205576112008386612569565b611225565b61120e81611bab565b61121b9060ff16846125a8565b6112259086612569565b9650505050506112d4565b600080611246611241846001612437565b611b91565b9092509050600061125a600180841b6125a8565b600084815260208b9052604090205490199081168015159650909150856112a157611287836000196125a8565b611292866001612437565b61129c9190612437565b6112cd565b826112ab82611ca8565b60ff166112b891906125a8565b6112c3866001612437565b6112cd9190612437565b9650505050505b50935093915050565b600080600083126112ee57826112f7565b6112f783612643565b9050611306620d89e719612643565b8111156113255760405162461bcd60e51b815260040161046e9061227c565b60006001821661134657700100000000000000000000000000000000611358565b6ffffcb933bd6fad37aa2d162d1a5940015b70ffffffffffffffffffffffffffffffffff1690506002821615611397576080611392826ffff97272373d413259a46990580e213a61254a565b901c90505b60048216156113c15760806113bc826ffff2e50f5f656932ef12357cf3c7fdcc61254a565b901c90505b60088216156113eb5760806113e6826fffe5caca7e10e4e61c3624eaa0941cd061254a565b901c90505b6010821615611415576080611410826fffcb9843d60f6159c9db58835c92664461254a565b901c90505b602082161561143f57608061143a826fff973b41fa98c081472e6896dfb254c061254a565b901c90505b6040821615611469576080611464826fff2ea16466c96a3843ec78b326b5286161254a565b901c90505b608082161561149357608061148e826ffe5dee046a99a2a811c461f1969c305361254a565b901c90505b6101008216156114be5760806114b9826ffcbe86c7900a88aedcffc83b479aa3a461254a565b901c90505b6102008216156114e95760806114e4826ff987a7253ac413176f2b074cf7815e5461254a565b901c90505b61040082161561151457608061150f826ff3392b0822b70005940c7a398e4b70f361254a565b901c90505b61080082161561153f57608061153a826fe7159475a2c29b7443b29c7fa6e889d961254a565b901c90505b61100082161561156a576080611565826fd097f3bdfd2022b8845ad8f792aa582561254a565b901c90505b612000821615611595576080611590826fa9f746462d870fdf8a65dc1f90e061e561254a565b901c90505b6140008216156115c05760806115bb826f70d869a156d2a1b890bb3df62baf32f761254a565b901c90505b6180008216156115eb5760806115e6826f31be135f97d08fd981231505542fcfa661254a565b901c90505b62010000821615611617576080611612826f09aa508b5b7a84e1c677de54f3e99bc961254a565b901c90505b6202000082161561164257608061163d826e5d6af8dedb81196699c329225ee60461254a565b901c90505b6204000082161561166c576080611667826d2216e584f5fa1ea926041bedfe9861254a565b901c90505b6208000082161561169457608061168f826b048a170391f7dc42444e8fa261254a565b901c90505b60008413156116ac576116a9816000196124b3565b90505b6116bb6401000000008261262f565b156116c75760016116ca565b60005b6116db9060ff16602083901c612476565b949350505050565b600080808587108015908290611723576116fe888a89611ddc565b905080861061170f5787945061171e565b61171b89888489611e05565b94505b611753565b6000611730898b8a611ddc565b905080871061174157889550611751565b61174e8a8985158a611e05565b95505b505b878514821561178457806117675786611769565b815b94508061177757600161177a565b60005b60ff1693506117a8565b8061178f5786611791565b815b94508061179f5760016117a2565b60005b60ff1693505b5050509450945094915050565b60006117c18284612476565b9392505050565b60006117c182846125a8565b60006117c1828461254a565b80156117eb57600080fd5b6000806117f783611b91565b6000918252602095909552604090208054600190951b909418909355505050565b60006401000276a38210158015611842575073fffd8963efd1fc6a506488495d951d5263988d2682105b61185e5760405162461bcd60e51b815260040161046e90612358565b602082901b6fffffffffffffffffffffffffffffffff811160071b81811c67ffffffffffffffff811160061b90811c63ffffffff811160051b90811c61ffff811160041b90811c60ff8111600390811b91821c600f811160021b90811c918211600190811b92831c979088119617909417909217179091171717608081106118f5576118eb607f826125a8565b83901c9150611906565b61190081607f6125a8565b83901b91505b60006040611915608084612569565b901b9050828302607f1c92508260801c80603f1b8217915083811c935050828302607f1c92508260801c80603e1b8217915083811c935050828302607f1c92508260801c80603d1b8217915083811c935050828302607f1c92508260801c80603c1b8217915083811c935050828302607f1c92508260801c80603b1b8217915083811c935050828302607f1c92508260801c80603a1b8217915083811c935050828302607f1c92508260801c8060391b8217915083811c935050828302607f1c92508260801c8060381b8217915083811c935050828302607f1c92508260801c8060371b8217915083811c935050828302607f1c92508260801c8060361b8217915083811c935050828302607f1c92508260801c8060351b8217915083811c935050828302607f1c92508260801c8060341b8217915083811c935050828302607f1c92508260801c8060331b8217915083811c935050828302607f1c92508260801c8060321b8217915050600081693627a301d71055774c85611a9891906124c7565b905060006080611ab86f028f6481ab7f045a5af012a19d003aaa84612569565b901d905060006080611ada846fdb2df09e81959a81455e260799a0632f612437565b901d9050808214611b025788611aef826112dd565b1115611afb5781611afd565b805b611b04565b815b9998505050505050505050565b611b8281604051602401611b2591906121f2565b60408051601f198184030181529190526020810180517bffffffffffffffffffffffffffffffffffffffffffffffffffffffff167f41304fac00000000000000000000000000000000000000000000000000000000179052611e53565b50565b60006117c182846124b3565b600881901d6000611ba46101008461261b565b9050915091565b6000808211611bb957600080fd5b7001000000000000000000000000000000008210611be457608091821c91611be1908261248e565b90505b680100000000000000008210611c0757604091821c91611c04908261248e565b90505b6401000000008210611c2657602091821c91611c23908261248e565b90505b620100008210611c4357601091821c91611c40908261248e565b90505b6101008210611c5f57600891821c91611c5c908261248e565b90505b60108210611c7a57600491821c91611c77908261248e565b90505b60048210611c9557600291821c91611c92908261248e565b90505b6002821061060d5761042660018261248e565b6000808211611cb657600080fd5b5060ff6fffffffffffffffffffffffffffffffff821615611ce357611cdc6080826125bf565b9050611ceb565b608082901c91505b67ffffffffffffffff821615611d0d57611d066040826125bf565b9050611d15565b604082901c91505b63ffffffff821615611d3357611d2c6020826125bf565b9050611d3b565b602082901c91505b61ffff821615611d5757611d506010826125bf565b9050611d5f565b601082901c91505b60ff821615611d7a57611d736008826125bf565b9050611d82565b600882901c91505b600f821615611d9d57611d966004826125bf565b9050611da5565b600482901c91505b6003821615611dc057611db96002826125bf565b9050611dc8565b600282901c91505b600182161561060d576104266001826125bf565b60006116db611e0083611dfa611df187611e74565b61116e89611e74565b906117d4565b611ec0565b60008215611e3a57611e33611e2c611e1d8685611b85565b611e2688611e74565b906117b5565b6002611ec3565b90506116db565b611177611e2c611e4a8685611b85565b61116e88611e74565b80516a636f6e736f6c652e6c6f67602083016000808483855afa5050505050565b60006402540be400815b81611e9785611e8d84806117d4565b611e0091906125a8565b106117c157611eb981611e266002611eb38361116e8a82611b85565b90611b85565b9050611e7e565b90565b60008260015b8361ffff16811015611ef357611edf82866117d4565b915080611eeb81612600565b915050611ec9565b509392505050565b6040518060c0016040528060008152602001600081526020016000151581526020016000815260200160008152602001600081525090565b604080516101008101909152806000815260200160008152602001600081526020016000815260200160008152602001600081526020016000815260200160006003811115611f9257634e487b7160e01b600052602160045260246000fd5b905290565b80356001600160a01b038116811461060d57600080fd5b600060208284031215611fbf578081fd5b6117c182611f97565b600080600060608486031215611fdc578182fd5b611fe584611f97565b95602085013595506040909401359392505050565b60008060006060848603121561200e578283fd5b8335611fe58161269f565b6000806000806080858703121561202e578081fd5b84356120398161269f565b935060208501359250604085013591506060850135801515811461205b578182fd5b939692955090935050565b600080600080600060a0868803121561207d578081fd5b85356120888161269f565b94506020860135935060408601359250606086013591506120ab60808701611f97565b90509295509295909350565b6000602082840312156120c8578081fd5b5035919050565b600080604083850312156120e1578182fd5b50508035926020909101359150565b600080600060608486031215612104578283fd5b505081359360208301359350604090920135919050565b60008060008060008060c08789031215612133578081fd5b86359550602087013594506040870135935060608701356121538161269f565b9598949750929560808101359460a0909101359350915050565b602080825282518282018190526000919060409081850190868401855b828110156121af5781518051855286015186850152928401929085019060010161218a565b5091979650505050505050565b901515815260200190565b90815260200190565b6001600160a01b0391909116815260200190565b918252602082015260400190565b6000602080835283518082850152825b8181101561221e57858101830151858201604001528201612202565b8181111561222f5783604083870101525b50601f01601f1916929092016040019392505050565b6020808252600e908201527f496e76616c696420616d6f756e74000000000000000000000000000000000000604082015260600190565b60208082526001908201527f5400000000000000000000000000000000000000000000000000000000000000604082015260600190565b6020808252600d908201527f416d6d206973206c6f636b656400000000000000000000000000000000000000604082015260600190565b6020808252601b908201527f52657175697265206e6f742066696c6c6564206f70656e207965740000000000604082015260600190565b60208082526014908201527f5265717569726520646966666572656e63652030000000000000000000000000604082015260600190565b60208082526001908201527f5200000000000000000000000000000000000000000000000000000000000000604082015260600190565b8151610100820190600281106123a7576123a7612689565b808352506020830151602083015260408301516040830152606083015160608301526080830151608083015260a083015160a083015260c083015160c083015260e0830151600481106123fc576123fc612689565b8060e08401525092915050565b92835260208301919091521515604082015260600190565b9283526020830191909152604082015260600190565b6000808212826001600160ff1b03038413811516156124585761245861265d565b82600160ff1b0384128116156124705761247061265d565b50500190565b600082198211156124895761248961265d565b500190565b600060ff821660ff84168060ff038211156124ab576124ab61265d565b019392505050565b6000826124c2576124c2612673565b500490565b60006001600160ff1b03818413828413858304851182821616156124ed576124ed61265d565b600160ff1b8487128682058812818416161561250b5761250b61265d565b8587129250878205871284841616156125265761252661265d565b8785058712818416161561253c5761253c61265d565b505050929093029392505050565b60008160001904831182151516156125645761256461265d565b500290565b600080831283600160ff1b018312811516156125875761258761265d565b836001600160ff1b030183138116156125a2576125a261265d565b50500390565b6000828210156125ba576125ba61265d565b500390565b600060ff821660ff8416808210156125d9576125d961265d565b90039392505050565b6000600160ff1b8214156125f8576125f861265d565b506000190190565b60006000198214156126145761261461265d565b5060010190565b60008261262a5761262a612673565b500790565b60008261263e5761263e612673565b500690565b6000600160ff1b8214156126595761265961265d565b0390565b634e487b7160e01b600052601160045260246000fd5b634e487b7160e01b600052601260045260246000fd5b634e487b7160e01b600052602160045260246000fd5b60028110611b8257600080fdfea2646970667358221220674d08455b0395c5154e05b39404d23c9eff36fdfcd8b78c655347da8148aa7464736f6c63430008000033",
  "linkReferences": {},
  "deployedLinkReferences": {}
}